:100000000C941A020C9452020C9452020C94520258
:100010000C9452020C9452020C9452020C94520210
:100020000C9452020C9452020C9498210C946C2261
:100030000C949C1C0C9452020C9452020C9452028C
:100040000C9452020C9452020C9452020C945202E0
:100050000C9452020C94231D0C9452020C945202E4
:100060000C9452020C9452020C9452020C945202C0
:100070000C9452020C9452020C9452020C945202B0
:100080000C9452020C9452020C9452020C945202A0
:100090000C9452020C9452020C9452020C94520290
:1000A0000C9452020C9452020C9452020301EF0081
:1000B000DB00C700B80000000004000000040100DD
:1000C00000FFFF000000000003000000030100002B
:1000D000FF0401000000FF0000000000020000001B
:1000E00002010000FF0302000000FF00000000000A
:1000F0000100000001010000FF0203000000FF00FA
:1001000000000000010000FF0104000000FF0000EB
:100110000000AE5D06011901AE5DC35CC45CAE5D5E
:10012000CB5CCA5CAE5DAE00AB00AE5DAE00AC00B9
:1001300000047F3F1F643214643214783C1E1E1486
:100140000A052223252628292A2C2D2F3032333543
:1001500036383A3B3D3E4042434547494A4C4E5073
:1001600051535557595A5C5E6062646668696B6D9D
:100170006F71737577797B7D7F81838587898A8CA1
:100180008E90929496989A9C9E9FA1A3A5A7A8AAA8
:10019000ACAEAFB1B3B4B6B8B9BBBCBEBFC1C2C3DD
:1001A000C5C6C7C9CACBCCCDCED0D1D2D2D3D4D577
:1001B000D6D7D7D8D9D9DADADBDBDBDCDCDCDCDCA0
:1001C000DDDDDDDDDCDCDCDCDCDBDBDBDADAD9D978
:1001D000D8D7D7D6D5D4D3D2D2D1D0CECDCCCBCA06
:1001E000C9C7C6C5C3C2C1BFBEBCBBB9B8B6B4B32C
:1001F000B1AFAEACAAA8A7A5A3A19F9E9C9A9896C2
:100200009492908E8C8A89878583817F7D7B797794
:100210007573716F6D6B6968666462605E5C5A5974
:1002200057555351504E4C4A4947454342403E3D35
:100230003B3A3836353332302F2D2C2A29282625C3
:100240002322FFAA7F55400400010203000101019F
:100250000101010101010202020202020202020383
:100260000303030303030304040404040404050553
:100270000505050606060606070707070708080816
:1002800008090909090A0A0A0B0B0B0C0C0C0D0DC5
:100290000D0E0E0E0F0F0F1010111111121213135D
:1002A0001414151516161717181819191A1A1B1BD6
:1002B0001C1D1D1E1E1F2020212222232424252632
:1002C00026272829292A2B2C2D2D2E2F303132326A
:1002D000333435363738393A3B3C3D3E3F40414276
:1002E000434445464748494A4C4D4E4F505153545C
:1002F000555658595A5B5D5E5F6162646566686910
:100300006B6C6D6F7072737577787A7B7D7E80828F
:10031000838587888A8C8E8F91939596989A9C9ED8
:10032000A0A2A3A5A7A9ABADAFB1B3B5B7BABCBEE8
:10033000C0C2C4C6C9CBCDCFD1D4D6D8DBDDDFE2B5
:10034000E4E7E9EBEEF0F3F5F8FAFDFF16035400ED
:100350006800650020004B00650079002000560011
:10036000320000000A03440072006F0070000000B9
:100370000403090409023B00020100A0FA09040079
:1003800000010301010009211101000122400007C1
:1003900005810308000109040100010300000009B0
:1003A0002111010001223200070582032000011201
:1003B00001000200000008EDFE0000020001020042
:1003C0000105010980A101850319012AB700150162
:1003D00026B700950175108100C0050C0901A10127
:1003E000850419012AA002150126A00295017510A5
:1003F0008100C005010906A101050719E029E715DB
:100400000025019508750181029501750881010596
:1004100007190029FF150026FF00950675088100C1
:1004200005081901290595057501910295017503C6
:100430009101C00011241FBECFEFDAE0DEBFCDBFB7
:1004400004B603FE18C08091710290917202A091CF
:100450007302B09174028730904BA740B04B59F4AF
:100460001092710210927202109273021092740232
:10047000E0E0F8E3099511E0A0E0B1E0E0EDFAE496
:1004800002C005900D92AC3AB107D9F722E0ACEA70
:10049000B1E001C01D92A137B207E1F70E941B1124
:1004A0000C9450250C9400008CEA90E0909322026A
:1004B0008093210208958E3A9D4569F5FB01828162
:1004C000811102C080E008958091AE019091AF014A
:1004D000009711F00E9497078091AE010E949A1731
:1004E0008091AE019091AF01019665E070E00E94AD
:1004F00021248093AE019093AF0141E068EE73E058
:100500000E946C178091AE019091AF010097D1F2DB
:100510000E947507D7CF81E0089581E008950E9479
:100520005B02089508950E9492020895A5E0B0E04C
:10053000ECE9F2E00C94B12449835A833091B10183
:1005400089819A81311119C0662399F0222389F09B
:100550000E948808182F682F89819A810E946D084F
:1005600069817A81812F0E94EA0E2596E3E00C943E
:10057000CD240E947A08182FF3CF0E948808698141
:100580007A81F1CFFC01262F4081518162817381F4
:1005900084810E949602089581E00895CF93DF93AD
:1005A000EC0160E00E94C202BE010E949302DF9152
:1005B000CF9108950E94231008950E942710089556
:1005C00008950E94BC060E94E0022FEF84E39CE0A5
:1005D000215080409040E1F700C0000008950E9443
:1005E000E1020E94471D08950E94E1020E946B1DD6
:1005F00008950F931F93CF93DF938C0161E00E94C6
:10060000C202EC01B8010E948F02811106C080E095
:10061000DF91CF911F910F910895B801CE010E94F3
:10062000671B8823A1F3B801CE010E949C1988237F
:1006300071F3B801CE010E94D91A882341F3B801A1
:10064000CE010E94A818882311F3F8018281882323
:1006500061F0CB35FDE5DF0701F158F4C115ECE59C
:10066000DE0791F0CF3DDC4591F0C8010E948D027C
:10067000CFCFCD358DE5D80769F090F0C83ADD458C
:10068000A1F70E94F402C3CF0E94EF02C0CF0E94E4
:100690004E0DF7CF0E94880CE8CF0E94920CE5CF58
:1006A0000E94960CE2CF0E947E1C0E9474030E945E
:1006B0006E1608950E9478030E94F3170E94831C0F
:1006C000089508950E946103089581E008950E94AD
:1006D000650308950895CF93C82F0E9462038C2F5D
:1006E0000E946703CF91089580E00E946B030895F4
:1006F0000E94C31B0E946B0308950E94C31B90912C
:10070000B001981721F08093B0010E946B03089507
:10071000ABE0B0E0EEE8F3E00C94B2244F835887EE
:1007200069877A878B8761110E94D30B1E821D8295
:1007300085E0FE013796DE01119601900D928A95B3
:10074000E1F78C819D81892B61F449815A816B810C
:100750007C818D819E810E94FC0A2B96E2E00C94A4
:10076000CE2489819A8189238F3F79F3CE01019626
:100770000E94CC028111E9CFF0CFFC0180819181F0
:100780000E94C2080895CF93C82F8823B9F08CEF38
:100790008C0F813AA8F46C2F809100019091010197
:1007A0000E94191C882329F08C2F0E94930B0E9411
:1007B000F40B8C2F0E948B0B0E94F40BCF910895A9
:1007C00080E28C0F883048F4C77081E001C0880F48
:1007D000CA95EAF70E94B60BEFCFEBE5EC0FE330DA
:1007E00040F4F0E0E05BFE4F808190E00E94DB1B74
:1007F000E5CFC85AC73110F7EC2FF0E0EE0FFF1F1E
:10080000EE5DFE4F808191810E94F11BD7CF88233E
:1008100039F19CEF980F913A28F40E94930B0E94B3
:10082000F40B089590E2980F983050F4877091E09F
:1008300001C0990F8A95EAF7892F0E94BC0BEFCF70
:100840009BE5980F933028F490E080E00E94DB1B3A
:100850000895885A873120F490E080E00E94F11BCF
:1008600008951F93CF93DF93182FEB010E94C303CA
:10087000209739F4812F0E940704DF91CF911F91B7
:1008800008958FE99FE00197F1F700C000002197DC
:10089000EFCF70E060E0893311F460E570E00E9412
:1008A00031040895882321F00E94B60B0E94F40BB6
:1008B0000895882321F00E94BC0B0E94F40B089538
:1008C000B0E0A0E0E6E6F4E00C94AB246C01D62F97
:1008D000C72FFC011281F580F2949FE0F9220E945B
:1008E000AC0BE82E8823B9F0E12E1123A1F08C2F58
:1008F000807F803421F080E28D0F8830D0F08091AD
:10090000490282FF16C082E00E94570C0E94AC0B85
:1009100091E0E82EE926BC2EB2948FE0B822FBE0ED
:10092000FB1508F468C0EB2DF0E0EE5AFA4D0C947C
:100930006B24E12CF0CF0C2F0F70C07F11F00295CB
:10094000007F112399F0002359F080E28D0F883049
:1009500010F0D11107C0802F0E94B60B0E94F40B3B
:100960008D2F41C0802F0E94C60BF8CF8D2F0E9483
:100970000704002309F43FC080E28D0F883010F097
:10098000D11104C0802F0E94BC0B03C0802F0E9495
:10099000CC0B0E94F40B2FC00C2F0F70C07FC03205
:1009A00011F00295007FDD2381F0D13009F463C09E
:1009B000112309F46DC0FF2009F463C0F60185819D
:1009C00080FFCECF8F7085835CC08091490282FD0D
:1009D00033C0112359F0002329F0802F0E94B60B59
:1009E0000E94F40B80E00E94C30305C080E00E94D7
:1009F00007040111C7CFEB2DE850FF0B349720F40B
:100A00000E94C31B0E946B03EE2089F00E94A80B7A
:100A100080FD0DC0F60112820E94A20B0E94750794
:100A2000C6010E9480060E94A20B0E949707CDB7C4
:100A3000DEB7E9E00C94C724112389F0F11006C059
:100A40000E94D60B802B0E945204D5CF21E0F212D7
:100A5000F7CF0E94D60B802B0E94DD0BCCCFF1107C
:100A600006C00E94EA0B802F0E945904C4CF31E0D7
:100A7000F31609F2F6CF112331F085E08F1508F453
:100A8000BACF802FE0CF94E09F1508F4B4CFEBCF1E
:100A9000FF2049F3D93349F4FFEF27EE33E0F1505B
:100AA00020403040E1F700C000008D2F0E94070475
:100AB000A2CF8C2F86958695837069F0813009F0DE
:100AC0009ACF8D2F9C2F9370111102C090E080E07F
:100AD0000E94F11B90CF8D2F9C2F9370111102C09B
:100AE00090E080E00E94DB1B86CF8C2F837009F0A2
:100AF00041C0111180CF4D2F429546954770440F4C
:100B0000440F0D2F0F7010E030E020E0042E04C0E1
:100B1000000F111F221F331F0A94D2F760E070E00C
:100B2000CB01D4FF0FC06FE070E080E090E004C024
:100B3000660F771F881F991F4A95D2F760957095A9
:100B400080959095C695C695C370602B712B822BAE
:100B5000932BC23049F058F4C13019F00E9420079D
:100B60004ACF0E940D0747CF0E94330744CF0E940F
:100B70000A0741CF8695112311F08C2F81708823AD
:100B800009F439CF4D2F429546954770440F440FD5
:100B90000D2F0F7010E030E020E0042E04C0000F95
:100BA000111F221F331F0A94D2F760E070E0CB01BF
:100BB000D4FF0FC06FE070E080E090E004C0660FEB
:100BC000771F881F991F4A95D2F760957095809579
:100BD0009095C695C695C370602B712B822B932B75
:100BE000C23049F058F4C13019F00E94F00703CF29
:100BF0000E94DD0700CF0E940308FDCE0E944C0733
:100C0000FACECF70112329F08C2F0E9475078D2FFB
:100C10001ACF8D2F0E9459048C2F0E949707EBCE7C
:100C2000D23F51F160F4D03FB9F0D13F81F01123B0
:100C300009F449C0F11094CE8C2F8F7121C0D33F9D
:100C400011F1D43FA1F78091490282FD26C08C2F7B
:100C50008F71112311F314C0112349F084E08F1513
:100C600008F4C9CE8C2F8F710E94BB07C4CE95E0CB
:100C70009F1508F4C0CEF6CF8C2F8F711111CDCFF8
:100C80000E947507B8CE112329F08C2F8F710E9416
:100C90005F07B1CE0E945907AECE112349F0CF7144
:100CA0008C2F0E94750763E08C2F0E94390CA3CE15
:100CB00081E00E94570CE1E0EF1508F09CCE82E045
:100CC0000E94570C98CEF110E5CE8C2F8F71A5CFD6
:100CD0000F931F93CF93DF93EC01688179818A8111
:100CE0000E94CD088C010E9416080E940907B801D5
:100CF000CE010E946004DF91CF911F910F91089562
:100D0000CF93DF93EC018B819C81892B29F0888123
:100D1000998189238F3F51F4DF91CF910895CE01BE
:100D20000E946806CE010E94CE02F6CFCE010E943C
:100D3000F9028111F4CF0E94AC0B882369F38A81F8
:100D4000882351F38091490282FFE6CF82E00E941E
:100D5000570CE2CF90E080E00E94DB1B90E080E047
:100D60000E94F11B0E94D30B0E94F40B08950E9475
:100D70009B0B0E94AA0608950E94C30B0E94B7060F
:100D8000089592959F70963091F058F4925F9F70FD
:100D9000923058F4803F19F030F4883E30F481E00E
:100DA00008959A5FF4CF843FD1F380E00895883EA0
:100DB000B0F3813FD1F7F3CFFC01808191810E9494
:100DC000C2080E94C1060895A5E0B0E0EAEEF6E090
:100DD0000C94B2242596E2E00C94CE24A6E0B0E078
:100DE000E4EFF6E00C94B2242696E2E00C94CE24D4
:100DF00008950E94F80608950E94F9066093BB01C9
:100E00007093BC018093BD019093BE010E94AA061D
:100E1000089508950E94FC0608950F931F93009172
:100E2000BB011091BC012091BD013091BE01602B2E
:100E3000712B822B932B0E94FC061F910F9108951A
:100E40000F931F930091BB011091BC012091BD0134
:100E50003091BE0160237123822393230E94FC06FC
:100E60001F910F9108950F931F930091BB01109153
:100E7000BC012091BD013091BE01602771278227FE
:100E800093270E94FC061F910F9108950E94F80677
:100E900008950E94460708950E9449076093B7018C
:100EA0007093B8018093B9019093BA010E94AA0689
:100EB000089560E070E0CB010E944C0708950F9305
:100EC0001F9341E050E060E070E08A019B0104C0A4
:100ED000000F111F221F331F8A95D2F7C901B801D5
:100EE0000E944C071F910F9108950F931F9341E0AB
:100EF00050E060E070E004C0440F551F661F771F8C
:100F00008A95D2F78091B7019091B801A091B9016B
:100F1000B091BA018A019B01082B192B2A2B3B2B7C
:100F2000C901B8010E944C071F910F9108950F93BA
:100F30001F9341E050E060E070E004C0440F551F93
:100F4000661F771F8A95D2F7CB01BA01609570951D
:100F5000809590950091B7011091B8012091B90149
:100F60003091BA0160237123822393230E944C079E
:100F70001F910F9108950F931F9341E050E060E09F
:100F800070E004C0440F551F661F771F8A95D2F783
:100F90008091B7019091B801A091B901B091BA01C7
:100FA0008A019B01082719272A273B27C901B80175
:100FB0000E944C071F910F9108950F931F9300916A
:100FC000B7011091B8012091B9013091BA01602B9D
:100FD000712B822B932B0E944C071F910F91089528
:100FE0000F931F930091B7011091B8012091B9019F
:100FF0003091BA0160237123822393230E944C070E
:101000001F910F9108950F931F930091B7011091B5
:10101000B8012091B9013091BA0160277127822768
:1010200093270E944C071F910F9108950895262F32
:10103000277091E001C0990F2A95EAF723E0769591
:1010400067952A95E1F725E0269FF001279FF00D8F
:101050001124E40FF51F50E040E0682F70E081910B
:10106000DF0111979B01042E02C0369527950A9443
:10107000E2F7217021952827292328272C934F5FF9
:101080005F4F4530510559F70895A82FA77023E009
:10109000969587952A95E1F725E0289FF001299FED
:1010A000F00D1124E60FF71F50E040E080E02191A1
:1010B00030E00A2E02C0369527950A94E2F7217097
:1010C0003327042E01C0220F0A94EAF7822B4F5FC8
:1010D0005F4F4530510559F70895262F911109C0EA
:1010E000833038F4682F70E042EB51E0822F0E9489
:1010F0001708089591110AC0833030F462EB71E053
:1011000090E00E944508982F892F089590E0FCCF29
:10111000B0E0A0E0EEE8F8E00C94AB248C01C090C5
:10112000B701D090B801E090B901F090BA01809178
:10113000BB019091BC01A091BD01B091BE01C82A34
:10114000D92AEA2AFB2ACFE1D0E0BC2ED701C6017A
:101150000C2E04C0B695A795979587950A94D2F75B
:1011600080FD09C0219788F7B12C8B2DCDB7DEB754
:10117000E9E00C94C724B8018C2F0E94FF0E019760
:1011800089F3F3CFCF93DF93EC010E948808BE016F
:101190000E94FF0EDF91CF9108951F93CF93DF93AD
:1011A000EB019091B101992339F0CB010E94C20863
:1011B000DF91CF911F910895882369F0CB010E94A0
:1011C0008808182F682FCE010E946D08BE01812F5C
:1011D0000E94FF0EEDCFCB010E947A08182FF6CFA8
:1011E0001F93CF93DF93C091BF0116E08091C001A0
:1011F0008C1304C0DF91CF911F910895D0E01C9F04
:10120000F0011D9FF00D1124EF53FE4F40815181DD
:1012100062817381848195810E94EE062196C77058
:10122000E5CF4091F1015091F2016091F30170918D
:10123000F4018091F5019091F6010E94EE06089567
:101240001F93CF93DF938091F601807F09F049C00F
:101250008091F301882309F444C08091BF01C091BB
:10126000C0016091F1017091F201A091F401B0917F
:10127000F501D62FD72316E0C81799F190E0109703
:1012800011F0DF3F19F401968770F6CF189F900197
:10129000199F300D1124F901EF53FE4F418147137F
:1012A000F2CF40814613EFCF42814111ECCF438111
:1012B00054814A1B5B0B483C510528F78091F6018D
:1012C0008F7080618093F601F901EA53FE4F8081AF
:1012D0008F708061808381EF91E00E9480060E9480
:1012E000F008DF91CF911F910895A1E1B0E0EBE705
:1012F000F9E00C94AA248C0185E0F801DE011D962A
:1013000001900D928A95E1F7F801E28081EFC82EF5
:1013100081E0D82E6091F4017091F501611571059D
:1013200009F44EC19091F1012091F201892F82239D
:101330008F3F09F445C140815181A380B480F09072
:10134000F301F501E61BF70BFF2009F4EAC08091D9
:10135000F601382F307FE83CF10508F0A3C03111C9
:101360006DC0FE2C251316C0941314C0E11012C0DA
:101370008F7080618093F6010E941109C6010E945E
:1013800080068091F601F80185838F2D6196EAE051
:101390000C94C624A114B10429F0842F85238F3F17
:1013A00009F027C180E0F82FF170DF2E80FF3CC0EC
:1013B0008091BF012091C00136E0821315C04D8796
:1013C0005E878D859E850E94C208292F22952F70E9
:1013D0002230F0F0243018F59F70F1F0F80195817B
:1013E000907FD1F4D12C1EC090E0389FF001399F3E
:1013F000F00D1124EF53FE4F6181651306C060812B
:10140000641303C06281E6120FC001968770D5CFC6
:101410009F7011F0882331F3805E883018F3C80183
:101420000E948006FD2CB1CFEE2009F4AECF809152
:10143000F60181608093F601F12CA7CF251306C039
:10144000941304C0F801EE2009F487C0C8010E947B
:10145000DC06882319F1EE2009F18091F601803233
:1014600070F02091F1013091F20138872F831986B5
:10147000BB86AA868C87CE0107960E94800686E0EE
:10148000F801A1EFB1E001900D928A95E1F70E9479
:1014900020090E941109FF24F39477CFC8010E940C
:1014A0008006F9CF311113C07A2DB98AA88A6E2D22
:1014B00089890E94E40681EF91E00E94800686E01F
:1014C000F60111928A95E9F70E941109B5CF25130B
:1014D0000FC094130DC0E1100BC0F8018583C80143
:1014E0000E94800686E0F60111928A95E9F74DCFB9
:1014F000C8010E94DC06882389F2EE2079F28091EF
:10150000F601803208F4BBCF2091F1013091F20155
:101510003A8329831B82BD82AC828E83CE010196E1
:10152000ACCFE83CF10508F03EC0FE2CEE2009F4FB
:10153000B5CF25132AC0941328C08091F60180FDF1
:101540001BC0982F907FC1F0F8018583903F31F048
:10155000982F907F905F8F70892B8583C8010E94A0
:10156000800686E0F801A1EFB1E001900D928A9526
:10157000E1F70E94110909CF86E0F801A1EFB1E07F
:1015800001900D928A95E1F700CFC8010E94DC0618
:10159000811175CF8091F60181608093F601C801B9
:1015A0000E948006F2CE7A2DB98AA88A6E2D89898A
:1015B0000E94E40686E0F60111928A95E9F7D9CFF8
:1015C000EE2009F46BCFC8010E94DC06F82E8823B8
:1015D00009F464CF86E0F801A1EFB1E001900D922B
:1015E0008A95E1F781EF91E00E94BD030E942009F6
:1015F000C0CF81E08E25D7CEACE0B0E0E2E0FBE0EA
:101600000C94B1244F83588769877A878B879C878E
:10161000CE0107960E947509882369F08A859B850B
:10162000892B39F04F815885842F85238F3F09F00E
:101630006BC016E05FC086E0FE013796DE011196B2
:1016400001900D928A95E1F78A859B85892B89F314
:101650008F81988589238F3F61F32091C00130E00D
:10166000C9010196877099274091BF014817190653
:1016700071F40E94BC061092C0011092BF0186E076
:10168000E1EFF1E0DF011D928A95E9F7D2CF96E014
:10169000929FD001939FB00D1124AF53BE4FFE0116
:1016A000319601900D929A95E1F78093C0010E94C6
:1016B000F008BFCF819FC00111248F539E4F0E941D
:1016C00075098823E9F0E091BF011E9FF001112404
:1016D000EF53FE4F408151816281738184819581F6
:1016E0000E94EE068091BF0190E0019687709927D5
:1016F0008093BF018091BF019091C0018913DACF1F
:101700002C96E3E00C94CD2469857A858B859C85A5
:101710000E94EE068ECF682F80910001909101010A
:101720000E944F1C0895682F809100019091010143
:101730000E94521C089580910001909101010E9425
:10174000551C08958091FF0185958595859508958F
:101750008091FF01877008959091FF01977081E05B
:1017600009F480E0089580910A02089590910A0298
:10177000892B80930A020895809590910A029823FC
:1017800090930A02089510920A0208959091090216
:10179000892B8093090208958095909109029823DE
:1017A0009093090208951092090208958091000211
:1017B000089508950E94D90B08959091490292FFCF
:1017C00008C090910002981721F0809300020E94B7
:1017D000DA0B089580910002882329F0109200020C
:1017E00080E00E94DA0B0895CF93DF93E09100012F
:1017F000F091010180910A028083E0910001F09153
:101800000101808190910902892B808390910002CF
:10181000992381F0E0910001F09101018081892BF1
:10182000808380910001909101010E94071C811129
:101830000E94EA0BC0910001D091010148E050E004
:1018400067EF71E0CE010E94FB24892B59F088E0FC
:10185000FE01A7EFB1E001900D928A95E1F7CE016C
:101860000E94D01BDF91CF91089508950E94350CFE
:1018700008959091490292FF11C098E0899F9001CC
:101880001124622B6093FF010E9475078091FF0174
:101890008595859585950E94360C08950E9475075B
:1018A00008951092FF0180E00E94360C08959091F7
:1018B000FF01809589238093FF01282F277091F4E1
:1018C000282F082E000C330B9217130659F0909115
:1018D000490292FF07C08595859585950E949707D7
:1018E0000E94510C08959091490292FB222720F901
:1018F000281769F080FB92F9909349028091480281
:10190000909149020E94C40C82E00E94570C0895F5
:101910008091490282FB882780F991E089270E9403
:10192000730C089581E00E94730C089580E00E947A
:10193000730C08956FEF7FEF90E080E00E943A25EE
:10194000089590E080E00E94162521E0883E9E4F99
:1019500009F020E0822F089582E090E00E9408259F
:10196000089583E090E00E9408250895CF9384E0D5
:1019700090E00E940825C82F82E290E00E9408258E
:10198000982F8C2FCF910895CF93C92F682F84E083
:1019900090E00E941C256C2F82E290E00E941C25A2
:1019A000CF910895AB01BC018FE090E00E942E25FD
:1019B0000895AB01BC0183E190E00E942E250895BB
:1019C00060E070E0CB010E94D90C089560E070E007
:1019D000CB010E94D20C0E94E00C089568EE7EEFCD
:1019E00090E080E00E943A2560E082E090E00E9472
:1019F0001C2560E083E090E00E941C251092BB0152
:101A00001092BC011092BD011092BE0160E084E012
:101A100090E00E941C2564E082E290E00E941C2578
:101A200060E085E090E00E941C2560E086E090E0A8
:101A30000E941C256FEF87E090E00E941C2540E08B
:101A400050E0BA0188E090E00E942E2560E08DE031
:101A500090E00E941C2540E050E0BA0188E190E04F
:101A60000E942E2560E087E190E00E941C2540E066
:101A700050E0BA018CE190E00E942E2570E060E019
:101A800080E290E00E943A2540E050E0BA0188E10F
:101A900090E00E942E250E94E60C08950E94EE0C14
:101AA0000895682F8EE090E00E941C2508950E9402
:101AB000081D60931002709311028093120290939C
:101AC000130260930C0270930D0280930E029093A8
:101AD0000F020895089508950E946B0D08950E94C5
:101AE000540208958EED9FE00E94B91B0E946A0D7A
:101AF0000E946C0D089581E008950E947B0D089569
:101B0000089508950E94800D0E94810D08950E94FD
:101B1000FD0F0E946A0308950E94F31C0E949F100B
:101B20000E94870D0E9413170E946F0D0895AAE06E
:101B3000B0E0EDE9FDE00C94AE240E94AB10E82E7D
:101B400081110E94570D80E00E942A10182F809169
:101B50000B02082F0127811311C08FEF89838A831D
:101B60001B820E94FC1C8160782F9D838C8349819D
:101B70005A816B818D810E9488032DC0809114024F
:101B800081FD0E943010802F8170F82E00FD2BC047
:101B900001FD2BC002FFE1CF02E094E0F92E0E948C
:101BA0007D0D882399F00E831F821F2181E009F4A7
:101BB00080E088870E94FC1C8160782F9A87898743
:101BC0004E815F8168858A850E94880380910B021F
:101BD000F826F0920B0281E0E11001C080E02A9625
:101BE000E6E00C94CA2400E0DACF01E082E0F82EAF
:101BF000D6CF0E94970D0E94FD170E947D03089585
:101C0000CF93DF930E94040FEC01811522E5920728
:101C1000E8F5811531E5930708F0ACC0883E9105E1
:101C200010F5803E910570F5883A910570F4853A7B
:101C3000910508F078C08130910521F1009711F1EC
:101C4000049700F5D0E0C0E01DC08F3B9105D0F7B0
:101C5000C85AD0E0CC0FDD1FCD5ADE4F0990D88195
:101C6000C02DD4640FC0811540E5940708F066C00C
:101C7000C11580E4D80708F05EC0CE019A958115A1
:101C80009F4100F7CE01DF91CF910895811536E590
:101C9000930718F5811545E5940708F083C0C11531
:101CA00084E5D80708F079C09C2F969596959E01FB
:101CB00023703327C115D34508F461C0C1E0D0E0DB
:101CC00002C0CC0FDD1F2A95E2F730E2939FC001DE
:101CD0001124C82BD92BDA68D5CFC1158AE5D807CE
:101CE00078F4C11599E5D90708F066C0C11528E553
:101CF000D20708F4A7CFDC2FCC27C06FD06AC2CFA1
:101D0000CE0190568115904208F09CCF8D2F8F7197
:101D10000E949B0F90E0982F882788279F719C0135
:101D20002C2BE90147C0C55AD0E0CF57DE4FC88100
:101D3000D0E0D064A7CFDF70D06AA4CFE4E096955E
:101D40008795EA95E1F783702C2F269526952370C9
:101D500040E2249F90011124382B8C2F8370C1E026
:101D6000D0E002C0CC0FDD1F8A95E2F7C22BD32B47
:101D7000DC6888CFD82FCC27C16FD06A83CFC1E071
:101D8000D0E002C0CC0FDD1F2A95E2F720E2929F3F
:101D9000C0011124C82BD92BEBCFDC2FCC27C46F6B
:101DA000D06A70CF0E949B0FC82FD0E0DC2FCC27C9
:101DB000CC27DF71D06266CF8C2F8F700E949B0F73
:101DC00034E0D695C7953A95E1F7CF709C2FEC019A
:101DD000D06958CF711110C0633070F4E62FF0E075
:101DE00093E0899FE00DF11D1124EE0FFF1FEE5EC1
:101DF000FE4F85919491089580E090E008950E94AF
:101E0000EA0E0E94000E089582389105B1F1B0F4F7
:101E10008133910509F475C048F48932910509F4BC
:101E200069C08A32910509F473C00895853391051C
:101E300009F459C08933910501F10895833E910554
:101E4000A9F138F4803E9105F9F0823E910549F1FF
:101E50000895863E9105A9F1873E9105C9F1843E1A
:101E6000910519F52091490221FF1FC08091480278
:101E700084FD14C087EE90E00895209148022370FD
:101E8000A1F080EE90E008952091480220FD47C027
:101E90003091490230FF09C024FF44C090E080E047
:101EA00004C02091480222FDF7CF089520914802F6
:101EB00022FD3BC03091490230FDE3CF24FFF5CF36
:101EC000EDCF2091480223FFF0CF24FDE7CFD2CF02
:101ED0002091480223FD2CC03091490231FFEECF02
:101EE00084EE90E008952091480225FFDECF89E23C
:101EF00090E008952091480225FFD7CF85E390E038
:101F000008952091480226FFD0CF8AE290E00895FC
:101F10002091480226FFC9CF81E390E0089589E32C
:101F200090E0089583EE90E0089582EE90E00895A9
:101F300086EE90E008959091480292FF06C0282F07
:101F400028712830F9F4877F846093FF06C0282F1A
:101F500028712831F1F4877E84612091490220FFA5
:101F600006C0382F38713830D9F4877F816021FF5F
:101F700006C0282F28712831D1F4877E816194FD15
:101F8000877E0895282F24712430F9F68B7F88608E
:101F9000DCCF282F2471243101F78B7E8861DDCFBF
:101FA000382F3171313019F78E7F8860E0CF282FBC
:101FB0002171213121F78E7E8861E1CF80E0089583
:101FC0000E949A0C08950E94AB102FEF86E791E0D3
:101FD000215080409040E1F700C000000E94AB100B
:101FE00080E00E942A1080FF04C00E94E00F0E943F
:101FF000471D08950E94E30F08950E94A10C8111CE
:1020000002C00E944E0D0E94AC0C809314020E94EC
:10201000B60C90934902809348020E94FA0F0E94E6
:10202000B10C682F70E090E080E00E940A07609198
:10203000B7017091B8018091B9019091BA010E94E5
:102040004907089508950E942210089508950E9456
:1020500026100895E82FF0E0E55BFD4F808108959C
:10206000089580EA8A95F1F7089500C008950E94C6
:1020700031100895F894E82FE295EF70F0E031A167
:10208000282F2F7081E090E001C0880F2A95EAF791
:10209000982F9095932391A392A1892B82A3789452
:1020A000089582E90E943A1081E90E943A1080E97D
:1020B0000E943A1084E90E943A100895EF92FF922C
:1020C0000F931F93CF93DF938C01F62EE42EC62F30
:1020D000D0E0CC57DE4F28812F3F39F1F894E22F22
:1020E000E295EF70F0E031A12F7081E090E001C047
:1020F000880F2A95EAF7932F982B91A392A18095A8
:10210000892382A378940E943510F80180814C992C
:1021100011C08E29808311E088818F3F11F00E94C9
:102120003A10612F8F2D0E943710CDB7DEB7E6E051
:102130000C94CA24E0948E21808310E0EDCF0E949D
:10214000511010924B0210924A0281E00E94D71067
:102150000E94DA020895A1E0B0E0E1EBF0E10C9416
:10216000B024198210E001E0402F612FCE010196CA
:102170000E945E101F5F000F1330B1F790914A026A
:10218000898111E0981301C010E0981380934A02EE
:10219000212F41E06BE472E08AE492E00E94D810C3
:1021A0000E94DD02812F2196E4E00C94CC24089556
:1021B000FF920F931F93CF93DF93F82E092F162FC3
:1021C000D72FC42F222349F081E0809317020E9469
:1021D000FC1C9093160280931502809117028823AD
:1021E000A1F080911502909116020E94141D05978E
:1021F00060F0EF2DF02FA12FBD2FCE0FDF2FD11DBF
:10220000EC17FD0739F410921702CDB7DEB7E5E001
:102210000C94CB2481918D93F3CF0E94EE1E0E94EB
:102220008C0D0E94FB1E08950E94001F0E94F90D54
:102230000E941A1F08950E94951C0E94D41E0E949D
:10224000720D0E940D110E9414110E94820DFBCF8D
:10225000EF92FF920F931F93CF93DF93EB01E82F41
:10226000D1110EC0442321F0F0E0E45BFD4FE49176
:102270006E2F7E2F8E2FCDB7DEB7E6E00C94CA24EA
:102280000D2F10E0282F30E0442329F0245B3D4F30
:10229000F901249130E0F6E0CF9FC0011124EFEF67
:1022A000F0E0BF010E942124AB018C2F90E0880F49
:1022B000991FA5E5A49FB001A59F700D1124861B51
:1022C000970B982F990F980FBF01601B710B629F9E
:1022D000D001639FB00D729FB00D11248B2F9D9F75
:1022E000B0011124672F7727EF01C61BD70BBE0162
:1022F000629FE001639FD00D729FD00D11247F017A
:10230000E91AF108E09EB001E19E700DF09E700D9B
:102310001124672F7727E61BF70BE29F8001E39FCD
:10232000100DF29F100D1124E12F722F4230510534
:1023300099F048F44115510569F04130510581F09B
:10234000EB2F8D2F07C04430510569F080F04630E7
:102350005105B1F76E2F8FCFE22F7B2F812FFACF50
:10236000E22F7D2FF7CFEB2F822F712FF3CF7B2F13
:10237000822FED2FEFCF41E00E942811089508959C
:102380000E94BB110895CF93DF93762FE901682F48
:10239000842F0E94C011798368838A83DF91CF9153
:1023A000089580914C02982F9E7F29F4817082605D
:1023B00080934C0208958A34E8F381708864F8CFE2
:1023C00088E090E00E9410250895CF92DF92EF926E
:1023D000FF926B017C010E94D111B701A60188E038
:1023E00090E00E942E25FF90EF90DF90CF9008950F
:1023F000ECE4F2E083E0808311828FEF82838383B9
:10240000148260817181828193810E94E511089517
:1024100080914C0280FF02C08695089580E0089567
:1024200090915002933018F49F5F9093500288234C
:1024300051F060914C0270914D0280914E0290914A
:102440004F020E94E511089581E00E941012089544
:1024500090915002992319F0915090935002882343
:1024600051F060914C0270914D0280914E0290911A
:102470004F020E94E511089581E00E9428120895FC
:1024800021E030E001C0220F8A95EAF790912E02F8
:10249000922381E009F480E0089570E00E947019B1
:1024A0000895AFE0B0E0E7E5F2E10C94A624709067
:1024B000060190914C0290FF35C0C0902102D0904F
:1024C0002202C114D10409F040C0E7E4F2E09E0109
:1024D0002F5F3F4FBE01605F7F4FC901A4914A2F1C
:1024E00050E0DA01AA0FBB1FA40FB51FAF5ABD4FB2
:1024F000CD90DD90EC90D901CD92DD92ED929D01D1
:1025000031966A177B0751F720910501672DB3E0DB
:102510002B9F800D911D11240E944D122F96EEE0ED
:102520000C94C224809107012091080133E0839F1D
:10253000F0011124EF5AFD4F821708F0BECF11822F
:10254000108212828F5F3396F7CF90FFBECFF12CAF
:10255000E12C43E0642E8E2D0E944012882309F462
:102560003CC0F701EE0FFF1FEC0DFD1DA590B490D0
:10257000A114B10409F4A9CF45E050E0B501CE01A2
:1025800001960E94E52409810F3F39F18A81800F6D
:102590009927991F8630910514F085E090E04C0151
:1025A000880C991C880D991DDC01AF5ABD4F4D0157
:1025B000069D800111240F5A1D4F0815190520F0A2
:1025C000B5E0AB0EB11CD8CF98014D816C818B81E9
:1025D0000E94C3110D5F1F4FF0CF2FEFE21AF20AD6
:1025E00038E0E316F10409F0B6CF6FCF90914C02BA
:1025F00090FF0EC0909107012091080133E0939F56
:10260000F0011124EF5AFD4F921718F00E94511259
:1026100008958183608342839F5F3396F5CFA3E063
:10262000B0E0E5E1F3E10C94B22490914C0290FF0C
:102630000AC09E012F5F3F4F0E94C3114B816981E9
:102640008A810E94F6122396E2E00C94CE24CF9366
:10265000DF93EC01EC81F0E0EE5BFE4F4491ECE4A3
:10266000F2E0628181810E940F138C818F5F8C83E5
:10267000DF91CF910895CF93DF93EC01ECE4F2E08A
:10268000438162818C810E940F138C818F5F8C83C8
:10269000DF91CF910895A3E0B0E0E1E5F3E10C9480
:1026A000B0248C018091180281110AC09E012F5F15
:1026B0003F4F4FEF6FEF0E94C3118A818093180242
:1026C000F8016481613069F08091180240E066236E
:1026D00061F040E0623011F44091180280E060E067
:1026E00004C06091180240E080E00E94F612F801F8
:1026F000848190E0019663E070E00E943524848339
:102700002396E4E00C94CC24A3E0B0E0EAE8F3E103
:102710000C94AB24082FD62EE42EC22E90914C029E
:1027200090FF29C0E92FE695AE2FB0E0A957BE4F24
:102730008C9180932C029E7F923009F59E012F5F31
:102740003F4F802F0E94C3114B8169818A810E9473
:10275000F61200934D02D0924E02E0924F02CC202E
:1027600051F060914C0270914D0280914E02909117
:102770004F020E94E5112396E9E00C94C7248230B1
:1027800019F4E0904F02E5CF863019F400914D0224
:10279000E0CF8930D9F38931E1F6E9516E2F6170CC
:1027A000B62EE695F0E0EE5BFD4F1491F12C6091B2
:1027B0000901F61618F00E945112CBCFF19EC0010C
:1027C000112470E00E942124802FB11014C0860FC4
:1027D00020910701622F6F0D7727771F9B01220F32
:1027E000331F260F371F2F5A3D4F4E2D6D2D0E9440
:1027F000C311F394DCCF861BEBCFECE4F2E09181C4
:10280000282F438162818AE0890F0E9484130895F2
:1028100081E00E94FD130895ECE4F2E09181282FFD
:102820004381628186EF890F0E948413089581E0BD
:102830000E940C140895ECE4F2E062812AE0620F39
:1028400008F46FEF282F438181810E94841308953B
:1028500081E00E941B140895ECE4F2E062812AE01A
:10286000621B08F460E0282F438181810E94841359
:10287000089581E00E942C140895ECE4F2E0438175
:102880002FE0420F08F44FEF282F628181810E94D0
:102890008413089581E00E943D140895ECE4F2E071
:1028A00043812FE0421B08F440E0282F62818181A0
:1028B0000E948413089581E00E944E14089520E040
:1028C0000E9484130895EF92FF921F93CF93DF939A
:1028D000EC0110E0EE24EA94F12C60910901161746
:1028E00070F00E9451129A818C8190FF27C08F5FF7
:1028F0008C83DF91CF911F91FF90EF9008952091ED
:102900000701422F410F5527551FCA019A01220F77
:10291000331F280F391F2F5A3D4F70E0C7010E9407
:102920003524962F8C8140914F0260914E02199F61
:10293000800D11240E94C3111F5FCFCF8150D8CFCB
:10294000B0E0A0E0E6EAF4E10C94AA24FC01828164
:102950000FEF80FF01E010E045E0A42E8091090117
:10296000181798F00E94511280911A02013009F054
:102970004FC0811102C080910901815080931A02D9
:10298000CDB7DEB7EAE00C94C624C0910701C12E92
:10299000D12CCC0DDD2DD11DCE01880F991FC80F74
:1029A000D91FCF5ADD4F198218821A8234E0E32EE4
:1029B000F12CB12C80911A028B0D86301CF16A2DFE
:1029C0000E941324892F082E000C990BC816D906D3
:1029D00091F480914F028E9DA0018F9D500D112486
:1029E00055954795559547959E0160914E0280916A
:1029F0004D020E94C311B00EF1E0EF1AF108D1F6BA
:102A00001F5FACCF87FFDFCF90910901890FDBCF2C
:102A100090E001966091090170E00E943524AECFEC
:102A20000F931F93CF93DF9380910701909108013B
:102A300023E0829FF0011124EF5AFD4F891740F1E6
:102A4000C0E0D3E060910901C61740F10E94511225
:102A50002091030180911902820F809319029091B5
:102A60000401920F90930401191654F4082E000CDF
:102A7000990B409109014150550B841795071CF0A3
:102A8000219520930301DF91CF911F910F9108951C
:102A90001182108212828F5F3396D0CF0C2F10E0FC
:102AA00070E0C8010E94352420910701820F482F51
:102AB00050E020911902022E000C330B021713076D
:102AC000BCF020910401022E000C330B20173107BB
:102AD0007CF08D9F900111242F5A3D4F40914F0261
:102AE00060914E0280914D020E94C311CF5FAACF28
:102AF000FA01EE0FFF1FE40FF51FEF5AFD4F118291
:102B000010821282F3CFB0E0A0E0E9E8F5E10C9486
:102B1000A824EC014C81042F10E09801D8010E94F8
:102B200079249B01AC010E948F244B015C01E0E2FF
:102B3000F0E0E01BF10BA5E5B0E0AC019B010E94C9
:102B40008F246B017C019F01DF010E9471249B0196
:102B5000AC010E949A249B01AC01280D391D4A1D2D
:102B60005B1DC701B6010E944924F22E822F90E01E
:102B700039E23F1520F143E0249F9001112435955F
:102B80002795122F109500E085E5E82EEF1880912B
:102B90000901081718F10E9451129C8181E09923C4
:102BA00019F0903219F48FEF8093020180910201A5
:102BB000890F8C83CDB7DEB7ECE00C94C42425E5F7
:102BC00030E0B901681B790B9B01220F331F260FE0
:102BD000371F37FFD4CF2F5F3F4FD1CF8E2D01FD51
:102BE0008F2D20910701622F600F7727771F9B01A0
:102BF000220F331F260F371F2F5A3D4F412F609151
:102C00004E020E94C3110F5FC2CF0F931F93CF9349
:102C1000DF93EC0110E000E090910901901711069C
:102C200009F06CF40E9451128C8190E00196817041
:102C300099278C83DF91CF911F910F910895209157
:102C40000701A801420F511D9A01220F331F240FC3
:102C5000351F2F5A3D4F4C8160914E0280914D029D
:102C600096959017110651F04CF0442349F040918D
:102C70004F020E94C3110F5F1F4FCECF4423B9F301
:102C800040E0F7CFECE4F2E080818E7F80836081CA
:102C90007181828193810E94E51110922D022FEFA4
:102CA00080E792E0215080409040E1F700C00000B2
:102CB0000E9451120895ECE4F2E080818E7F8083BF
:102CC00010922D022FEF80E792E02150804090403B
:102CD000E1F700C000000E945112089510922D02E9
:102CE00080912A02811114C081E080932A02809190
:102CF0004C028170809329028091200280959091EE
:102D00002E02892380932E02109220020E945B16CD
:102D1000089560914C02669570E04BE050E08AE0C7
:102D200091E00E94EE24892B19F481E080932D021A
:102D30000E94FC1C9093240280932302089590919A
:102D40004C0290FF2BC09170811129C0926090932A
:102D50004C02662351F060914C0270914D028091BB
:102D60004E0290914F020E94E51160914C026695CF
:102D700070E04BE050E08AE091E00E94EE24892B65
:102D8000A9F010922D0281E08093260240914F021B
:102D900060914E0280914D020E945F140895853229
:102DA00010F09864D4CF880F982BD1CF0E94891649
:102DB000EACF682F90914C02969581E0890F853279
:102DC00008F081E00E949F16089581E00E94D916C4
:102DD0000895682F90914C0296958FEF890F09F412
:102DE00084E20E949F16089581E00E94E9160895EA
:102DF00061E00E949F160895ECE4F2E0808181601A
:102E0000808386950E94F816089580914C0280FF79
:102E100003C00E94421608950E94FC16089560E0C7
:102E20000E949F16089580912B0281112EC00E944E
:102E3000A10C811104C00E944E0D0E94F8110E9445
:102E4000E01160934C0270934D0280934E02909378
:102E50004F026E7F61F40E94F8110E94E0116093AE
:102E60004C0270934D0280934E0290934F020E9449
:102E7000D11110922D0280914C0280FF03C08695E3
:102E80000E940F1781E080932B020895ECE4F2E09A
:102E900080818160808386950E940F17089521E0CC
:102EA00030E0A90102C0440F551F8A95E2F7CA011C
:102EB00020912E02662369F0822B80932E0280914E
:102EC0002D02811105C080914C0286950E940F173A
:102ED000089580958223F1CF1F93CF93DF93182F0E
:102EE000EB0147FD4FE7440F40931D02D0931C02B6
:102EF000C0931B0261E0812F0E944F1780911D0239
:102F0000815080931D0221E030E001C0220F1A950C
:102F1000EAF780912002822B809320020E94FC1C01
:102F20008C0F9D1F90931F0280931E02DF91CF9103
:102F30001F910895CF93C82F60E00E944F1781E042
:102F400090E001C0880FCA95EAF780959091200221
:102F5000892380932002CF910895CF93DF938091AE
:102F60002002882369F10E94FC1C20911E023091EE
:102F70001F02821B930B8F3F9F4710F5D0E0C0E0EC
:102F80008091200290E00C2E02C0959587950A94BE
:102F9000E2F780FF08C080911D0280FF14C060E04E
:102FA0008C2F0E944F172196C830D10549F7809188
:102FB0001D02815080931D02811108C010922002D1
:102FC000DF91CF91089561E08C2FEBCF0E94FC1C24
:102FD00020911B0230911C02820F931F90931F02BD
:102FE00080931E02EDCF10922A0280912902811156
:102FF0000E9446170E94891608950F931F93CF933E
:10300000DF9380912D028823B9F180912C02E09109
:103010004C02E695E81BE09325028230A1F5F0E032
:10302000E25CFE4FE491CE2FD0E007E213E1809105
:103030002602882361F0109226020E94FC1C9093C5
:1030400024028093230210922802109227020E94E9
:10305000FC1CE0912302F09124028E1B9F0B8F3FFA
:103060009F4750F4EC0FFD1FF0932402E0932302DE
:1030700083E292E0F80109950E94AD17DF91CF91AC
:103080001F910F910895863049F4F0E0E55CFE4F02
:10309000E491CE2FD0E00BE313E1C9CF893051F496
:1030A000E695F0E0E85CFE4FE491CE2FD0E003E639
:1030B00014E1BDCF8F3051F4E695F0E0EB5CFE4FAC
:1030C000E491CE2FD0E000EA14E1B1CF853149F48C
:1030D000F0E0EE5CFE4FE491CE2FD0E000E115E190
:1030E000A6CFC8E2D0E003E815E1883109F49FCF0C
:1030F000833239F4E0E3F1E0C591D4910BE413E1BC
:1031000096CFC4EFD1E005E016E1843209F48FCF09
:10311000C0EDD7E00FEB11E18ACFFA01811101C0B8
:10312000FB0109950895CF93DF93C82FD62F0E94F6
:1031300008128C1748F00E9408128D1728F40E947C
:10314000E516DF91CF9108958C2F0E94F816F9CFE4
:103150001F93CF93DF93EC01FB01128111117EC00D
:103160000E94B30B8272CD3CFCE5DF0709F49CC0E2
:1031700008F041C0C73CECE5DE0709F481C0D8F493
:10318000C43C9CE5D90709F471C030F4C33CDC456C
:1031900009F469C011E062C0C53C9CE5D90709F497
:1031A0006AC047E154E168E074E1C63CDC4591F750
:1031B0000E948D1853C0CA3CFCE5DF0709F46AC0C1
:1031C00068F4C83CECE5DE0709F45FC048E254E16E
:1031D00069E374E1C93CDC4559F3DCCFCB3C9CE5A9
:1031E000D90709F45CC04CE352E164E272E1CC3CE3
:1031F000DC45F1F2CFCFC23DFCE5DF0709F465C045
:1032000098F4CF3C9CE5D90709F457C008F451C0A5
:10321000C03DFCE5DF0709F455C0C13DDC4509F0C0
:10322000B9CF6EE089E04BC0C53D9CE5D90709F4F4
:1032300052C058F4C33DFCE5DF0709F449C0C43D62
:10324000DC4509F0A7CF88E135C0C63D9CE5D9072C
:1032500009F444C0CE35DD4509F09CCF812FDF91C4
:10326000CF911F9108950E940517F8CF44EF56E1C2
:1032700065EE76E19DCF45EE56E164EF76E198CFBD
:1032800048E054E167E174E193CF49E354E168E237
:1032900074E18ECF4BE554E16AE474E189CF4AE4EE
:1032A00054E16BE574E184CF44E252E16CE372E1F6
:1032B0007FCF81E00E94F816D1CF65E082E00E94C6
:1032C0009318CCCF68E086E0FACF64E18FE0F7CFC7
:1032D00067E185E1F4CF62E289E1F1CF83E2EACFF1
:1032E000219A45B14D7F55B15260EFB7F8949B01DB
:1032F000220F331F260F371F280F391F28173907B2
:1033000041F4EFBF8FE594E00197F1F700C00000B2
:103310000895DC016D91CD0178E055B9000000C041
:1033200067FF45B9660F000000C000C000C045B986
:1033300000C07A9591F7E2CFCF93DF93EC01FB01C8
:103340008281882309F433C1C430FDE5DF07C0F56D
:10335000CB3F9CE5D90730F49E0122503C452431F7
:103360003105B0F50E94B60C909349028093480253
:10337000C1318CE5D80709F4EEC008F069C0C93046
:10338000ECE5DE0709F4D5C0C8F5C5308CE5D807F3
:1033900009F4C7C000F5C330ECE5DE0709F4B9C095
:1033A00008F0BBC0C230DC4509F4ADC080914802D2
:1033B000909149020E94C40C0E94BC0680E008C0A3
:1033C000C236EDE5DE0771F2C63AFDE5DF0751F2E0
:1033D000DF91CF910895809148028062C7309CE5CB
:1033E000D90709F493C0809148028061C830DC4558
:1033F00008F48CC080914802806488C080914802A3
:103400008B7FCD30FCE5DF0709F480C098F4809114
:1034100048028E7FCB309CE5D90709F477C08091B4
:1034200048028C60CC30DC4508F470C080914802C2
:103430008D7F6CC0809148028F7ECF30FCE5DF0726
:1034400009F464C008F47BC0809148028F7D5EC09F
:10345000CE3F9CE5D90709F47AC050F5C531FCE5AB
:10346000DF0709F486C098F480914802837FC33156
:103470009CE5D90709F44AC008F471C00E94BC0653
:1034800090914802892F97FB87F980583FC0CC3F25
:10349000FCE5DF0709F449C008F055C080914902F6
:1034A0008160CB3FDC4509F081CF809349027ECF1C
:1034B000C230EDE5DE0709F468C0A8F4C1158DE55A
:1034C000D80709F452C0809149028360C130DD45BC
:1034D00060F380914902982F909591708E7F892B8F
:1034E00090FB81F9E2CFC236EDE5DE0709F451C069
:1034F000C63AFDE5DF0709F453C0C330DD4509F0E6
:1035000055CF80E043C0809148028160809348029B
:103510004DCF809148028260F9CF8091480284604B
:10352000F5CF809148028860F1CF80914902826096
:10353000BCCF0E94BC06809148028068E7CF809192
:103540004802877FE3CF809149028E7FAECF809182
:1035500049028D7FAACF809148028F7BD7CF0E94EE
:10356000BC06809148028F77D1CF809149028C7F31
:103570009CCF8091480282FB992790F921E0922705
:1035800090FB82F990FB83F9C1CF81E00E94510D3D
:103590000DCF90914802892F8F7E94FF8061B6CF26
:1035A00090914802892F8E7F90FF8160AFCF81E09C
:1035B0000FCFCF93DF93EB0186319C4511F50E942D
:1035C000B30B9A81992399F08A7A91E009F490E0FB
:1035D00090932F02811109C089E20E948B0B0E94F7
:1035E000F40B80E0DF91CF91089585E3F6CF8091D1
:1035F0002F02811104C089E20E94930BF0CF85E372
:10360000FBCF81E0EFCF0F931F93CF93DF93C42FB6
:10361000D22FFC0182818823C9F0409332020E949C
:10362000FC1C909331028093300280E28C0F883032
:1036300040F4C77081E001C0880FCA95EAF70E9484
:103640005204DF91CF911F910F9108951091320292
:10365000141332C080913002909131020E94141DE7
:10366000883C910548F5C0E2CD0F1D17B9F080E206
:10367000810F883040F4177081E001C0880F1A95DF
:10368000EAF70E945904C83048F481E09D2F9770F2
:1036900001C0880F9A95EAF70E945204802F0E9479
:1036A0004904C83070F6D77081E001C0880FDA9500
:1036B000EAF70E945904C5CF80E28C0F883008F6E3
:1036C000C77081E001C0880FCA95EAF7F2CF0F9367
:1036D0009C01CB01243F4CE5340759F1A8F4293D66
:1036E000FCE53F0701F12A3D4CE53407D1F1283DC7
:1036F0003C4591F406E221EE41EE68ED7CE50E9446
:10370000031B80E00F910895263FFCE53F07E9F099
:10371000B0F0273F3C45F9F0FC018281882339F164
:1037200010923202EFCF07E225EE45EE69ED7CE51F
:10373000E6CF06E221EE40EE64EF7CE5E0CF07E263
:1037400025EE44EE65EF7CE5DACF06E221EE42EEAF
:1037500066EF7CE5D4CF07E225EE46EE67EF7CE529
:10376000CECF08E221E045EE6AED7CE5C8CF81E0EE
:10377000C9CF9093AD018093AC0108959093380226
:10378000809337020895E0913702F0913802309724
:1037900029F00190F081E02D0995089580E00895C9
:1037A000E0913702F0913802309721F00280F381E6
:1037B000E02D0995089520913502309136022817A1
:1037C000390771F09093360280933502E091370209
:1037D000F0913802309721F00680F781E02D0995AD
:1037E000089520913302309134022817390771F07F
:1037F0009093340280933302E0913702F0913802C3
:10380000309721F00084F185E02D099508959C0101
:103810002E5F3F4FAC01485F5F4F80E024173507B4
:1038200009F40895F90191919F019923B9F38F5FEC
:10383000F5CF662349F0FC013296089621912617B0
:1038400029F0E817F907D1F780E0089581E008959D
:103850009C01FC0132969FEF80E04191461751F0A8
:103860009F3F19F4411101C0982F8F5F8630A9F74F
:103870009F3F09F40895290F311D97FD3A95F901ED
:1038800062830895FC01329608962191261303C0A5
:10389000DF0111971C92E817F907B9F708950E9404
:1038A000281C08950E94421C0895029626E0FC01FF
:1038B00011922A95E9F7089508950E945C1C0895D5
:1038C000811106C081E0809339020E945D1C089539
:1038D00082E0F9CF83E0809339020E945D1C089555
:1038E0000E94601C089581E0809339020E945D1C53
:1038F00008950E94731C0895089508950E947D1CE8
:103900000895089508950E947C1C08950E94811CCA
:103910000E94AB100E94821C80E00E942A1091E05D
:10392000811101C090E0892F089585B7806885BF17
:1039300085B7806885BF08951F921FB61F92112416
:103940008F939F93AF93BF9380913A02811113C0DD
:103950008091600290916102A0916202B091630235
:103960004196A11DB11D8093600290936102A093C6
:103970006202B0936302BF91AF919F918F911F90AC
:103980001FBE1F90189580916802843031F10E940B
:10399000530310923A0288E190E020E40FB6F894C5
:1039A000A895809360000FBE2093600083B7817F4D
:1039B000846083BF83B7816083BF7894889583B721
:1039C0008E7F83BF0FB6F894A895809160008861C0
:1039D00080936000109260000FBE08950E94BC06A4
:1039E0000E945A03089582E084BD93E095BD9AEF4A
:1039F00097BD80936E0008952FB7F8948091600270
:103A000090916102A0916202B09163022FBF08956C
:103A10002FB7F89460916002709161028091620208
:103A2000909163022FBF08959C014FB7F894809145
:103A3000600290916102A0916202B09163024FBF57
:103A4000821B930B089578941F921FB61F92112426
:103A50008F939F93AF93BF93809160029091610287
:103A6000A0916202B09163020196A11DB11D8093E5
:103A7000600290936102A0936202B0936302BF91CF
:103A8000AF919F918F911F901FBE1F90189581E05D
:103A90008093E00080E28093D8001092C9008FE10B
:103AA0009EE40197F1F700C0000087E090EBDC0195
:103AB0008093710290937202A0937302B093740288
:103AC00088E19CE00FB6F894A895809360000FBE43
:103AD00090936000FFCF88E19CE00FB6F894A89522
:103AE000809360000FBE90936000FFCF80914602EC
:103AF00008950895CF93DF93EC0181E08093E9006E
:103B00008FEF9091E800815095FD06C095ED9A9554
:103B1000F1F700008111F5CF8091E80085FF14C016
:103B200050E040E068E070E0CE010E948C1F809180
:103B3000E8008E778093E80088E0FE01AEE3B2E013
:103B400001900D928A95E1F7DF91CF9108958093CE
:103B50003B0270933D0260933C0280916802843086
:103B600001F582E08093E9008FEF9091E8008150A9
:103B700095FD06C095ED9A95F1F700008111F5CFFE
:103B80008091E80085FF0DC050E040E063E070E008
:103B90008BE392E00E948C1F8091E8008E778093E7
:103BA000E8000895BC0184E00E94A71D0895BC01AF
:103BB00083E00E94A71D08950895809167028111F6
:103BC00009C00E941C210E9479218091E20084603A
:103BD0008093E20008951092670208950E94731C7A
:103BE00008956091640281E0611101C080E00E944B
:103BF0006A1C08959091680281E0943009F080E099
:103C0000609164020E94701C089542E061EC81E0C2
:103C10000E94982042E261EC82E00E9498209091FC
:103C2000680281E0943009F080E0609164020E94B3
:103C3000601C089580916A02833009F461C030F4F9
:103C40008130D1F1823009F49EC008958A3009F4A0
:103C50008AC08B3009F46FC0893009F050C0809160
:103C60006902813209F04BC080916D0290916E0221
:103C7000029708F044C08091E800877F8093E800B5
:103C80008091E80082FF37C09091F3008091F200AC
:103C9000029731F48091F100813011F0863021F4E7
:103CA0008091F100809346028091E8008B778093A9
:103CB000E8000E94CC2023C080916902813AF9F487
:103CC0008091E800877F8093E80080916D02909159
:103CD0006E02892B61F468E08EE392E070E00E944E
:103CE000DB1F8091E8008B778093E800089560E007
:103CF00090E080E0F3CF809168028111C1CF0895F8
:103D000080916902813AD9F780916D0290916E029B
:103D1000892BA9F78091E800877F8093E800809144
:103D2000E80080FFFCCF809121018093F100809119
:103D3000E8008E77BCCF80916902813201F78091D3
:103D40006D0290916E02892BD1F68091E800877FF9
:103D50008093E8000E94CC2080916B028093210127
:103D60000E94BC06089580916902813241F68091DB
:103D7000E800877F8093E8000E94CC2080916C024D
:103D800080934702089580916902813A09F0B7CF84
:103D90008091E800877F8093E8008091E80080FFB1
:103DA000FCCF80914702C1CF84B7877F84BF0FB615
:103DB000F894A895809160008861809360001092CB
:103DC00060000FBE80E890E00FB6F8948093610029
:103DD000909361000FBE0E94791C08950E941C21DF
:103DE0000E947921E2EEF0E0808184608083789403
:103DF0000E94F823089585E191E00E94BE1B08957A
:103E000080916802853031F480916802853019F024
:103E10000E94EE1C08950E94C31C809166028823B4
:103E200099F30E94861C882379F30E94761F0E94D2
:103E3000BC06EACF08950E941E1F0895292F33273C
:103E40002330310519F168F42130310509F444C0FB
:103E50002230310509F445C090E080E030E020E0F8
:103E600025C02132310549F122323105A9F780E41C
:103E700090E023EF33E061157105C1F082E390E03B
:103E800021EC33E06130710589F0E6CF992781306C
:103E9000910581F0009729F00297F1F6ECE4F3E048
:103EA00002C0E0E7F3E0849190E09F01FA013183E2
:103EB00020830895E4E6F3E0F6CF89E090E026E879
:103EC00033E06115710591F389E090E02FE933E06B
:103ED0006130710559F3C0CF82E190E02FEA33E001
:103EE000E5CF8BE390E024E733E0E0CF80E189BDCC
:103EF00082E189BD09B400FEFDCF8091D8008F7D9D
:103F00008093D8008091E00082608093E0008091EF
:103F1000E00081FDFCCF0895AF92BF92CF92DF9277
:103F2000FF920F931F93CF93DF936C01EB018A01F4
:103F30000E94EB20F82E811123C00115110539F0E4
:103F4000F80180819181C81BD90BC80ED91EB12CF4
:103F5000A12C2097A9F08091E80085FD22C08091D6
:103F6000E8008E778093E80001151105A1F0F801B3
:103F700080819181A80EB91EB182A08285E0F82EC1
:103F80008F2DDF91CF911F910F91FF90DF90CF90F8
:103F9000BF90AF9008950E94EB208823D1F2F82EB5
:103FA000EFCFF60181916F018093F1002197FFEF30
:103FB000AF1ABF0ACECFFC0180916F0290917002C0
:103FC00086179707A0F06115710529F49091E80014
:103FD0009E779093E80090E06115710551F491117E
:103FE00008C08091E80082FF34C080E00895BC01E1
:103FF000F2CF809168028823C1F18530C1F18091B0
:10400000E80083FD30C08091E80082FDEACF809116
:10401000E80080FFE1CF8091F3002091F200382F7B
:104020006115710519F02830310558F091E02830FC
:10403000310509F090E02091E8002E772093E80008
:10404000CBCF81918093F100615071092F5F3F4F79
:10405000E7CF80916802882341F0853041F080915C
:10406000E80083FFBECF81E0089582E0089583E0F9
:104070000895FC0180916F02909170028617970756
:10408000A0F06115710529F48091E8008E77809386
:10409000E80090E06115710551F4911108C080911C
:1040A000E80082FF35C080E00895BC01F2CF809126
:1040B00068028823C9F18530C9F18091E80083FD49
:1040C00031C08091E80082FDEACF8091E80080FF56
:1040D000E1CF8091F3002091F200382F6115710536
:1040E00019F02830310558F091E02830310509F0F9
:1040F00090E08091E8008E778093E800CBCF8491A8
:104100008093F1003196615071092F5F3F4FE6CFE8
:1041100080916802882341F0853041F08091E80069
:1041200083FFBDCF81E0089582E0089583E0089584
:10413000982F973028F08F708093E90081E00895E0
:104140009093E900242F762F50E0981731F070916A
:10415000EC002091ED005091F00021FD02C09F5F26
:10416000E8CF3091EB003E7F3093EB003091ED00D3
:104170003D7F3093ED003091EB0031603093EB00E8
:104180007093EC002093ED005093F0002091EE002E
:1041900027FDE5CF80E008958091690287FF13C075
:1041A0008091E80082FF06C08091E8008B778093C1
:1041B000E80004C0809168028111F2CF08958091D7
:1041C00068028823D9F38091E80080FFF8CF8091BE
:1041D000E8008E77ECCF2091E4003091E50095E681
:1041E000A9012091EC00822F817020FF06C08091F0
:1041F000E80080FF06C080E008952091E80022FDDD
:104200001AC080916802882389F0853089F08091F6
:10421000EB0085FD0FC02091E4003091E5004217CE
:104220005307F9F29150E1F684E0089582E0089591
:1042300083E0089581E008950E948B210E949321DC
:10424000E0EEF0E0808181608083E8EDF0E0808145
:104250008F77808319BCA7EDB0E08C918E7F8C9313
:1042600080818F7E80831092670208950F931F9341
:10427000CF93DF930E948B210E949321C8EDD0E061
:1042800088818F77888388818068888388818F7D03
:10429000888319BC10926802109264021092660220
:1042A0001092650200EE10E0F80180818B7F808320
:1042B00088818160888342E060E080E00E949820ED
:1042C000E1EEF0E080818E7F8083E2EEF0E080819D
:1042D00081608083808188608083F80180818E7F07
:1042E0008083888180618883DF91CF911F910F91B6
:1042F0000895E8EDF0E080818F7E8083E7EDF0E0C7
:1043000080818160808384E082BF81E08093670246
:104310000E9436210895E8EDF0E080818E7F808351
:104320001092E20008951092DA001092E1000895D0
:104330001F920F920FB60F9211242F933F934F931A
:104340005F936F937F938F939F93AF93BF93EF93FD
:10435000FF938091E10082FF0BC08091E20082FF19
:1043600007C08091E1008B7F8093E1000E94F723DA
:104370008091DA0080FF19C08091D80080FF15C0BD
:104380008091DA008E7F8093DA008091D90080FFDF
:1043900096C080E189BD82E189BD09B400FEFDCFF0
:1043A00081E0809368020E94DD1D8091E10080FF22
:1043B00019C08091E20080FF15C08091E2008E7FDD
:1043C0008093E2008091E20080618093E20080911E
:1043D000D80080628093D80019BC85E08093680281
:1043E0000E94F11D8091E10084FF2BC08091E200CA
:1043F00084FF27C080E189BD82E189BD89B5982FFE
:10440000917080FFFBCF8091D8008F7D8093D80082
:104410008091E1008F7E8093E1008091E2008F7EA9
:104420008093E2008091E20081608093E2008091BD
:104430006402882309F449C084E0809368020E94E2
:10444000FA1D8091E10083FF29C08091E20083FF83
:1044500025C08091E100877F8093E10082E0809316
:104460006802109264028091E1008E7F8093E100E7
:104470008091E2008E7F8093E2008091E200806173
:104480008093E20042E060E080E00E94982080910A
:10449000F00088608093F0000E94EE1DFF91EF9184
:1044A000BF91AF919F918F917F916F915F914F914C
:1044B0003F912F910F900FBE0F901F90189519BC30
:1044C000109268020E94EB1D70CF8091E30087FD7F
:1044D00093E090936802B3CF1F920F920FB60F92A2
:1044E00011242F933F934F935F936F937F938F93F9
:1044F0009F93AF93BF93CF93DF93EF93FF93D091AD
:10450000E900DF708091EC00C82FC17080FDC0E829
:104510001092E9008091F000877F8093F0007894FA
:104520000E94B0221092E9008091F0008860809390
:10453000F000CD2BCF70C093E900FF91EF91DF9198
:10454000CF91BF91AF919F918F917F916F915F912B
:104550004F913F912F910F900FBE0F901F90189584
:10456000AAE2B0E0E6EBF2E20C94B12489E692E034
:104570002091F100FC012193CF01F2E081379F07E8
:10458000B9F70E941A1E8091E80083FF1EC1809136
:10459000690290916A029A3008F017C1E92FF0E0A1
:1045A000E25AFA4D0C946B24803899F0823809F065
:1045B0000CC180916D028F70873008F006C1809326
:1045C000E9008091EB0085FB882780F91092E900D3
:1045D00006C080916502909166029111826090916F
:1045E000E800977F9093E8008093F1001092F1002B
:1045F0008091E8008E77E5C0882309F4D3C082302B
:1046000009F0E3C080916B028111D6C080916D02E8
:104610008F702FEF280F263008F0D7C08093E90065
:104620002091EB0020FFC8C0933031F48091EB0063
:1046300080628093EB00C0C09091EB0090619093FA
:10464000EB0021E030E001C0220F8A95EAF72093C9
:10465000EA001092EA008091EB008860EACF8111B5
:10466000B4C010916B021F778091E3008078812B9A
:104670008093E3008091E800877F8093E8000E94A8
:10468000CC208091E80080FFFCCF8091E30080681F
:104690008093E30082E0111183E08093680295C06B
:1046A0008058823008F091C080916B0290916C022A
:1046B0008C3D23E09207A1F583E08A838AE2898317
:1046C0004FB7F894DE01139620E03EE051E2E32F6D
:1046D000F0E050935700E49120FF03C0E295EF70A3
:1046E0003F5FEF708E2F90E0EA30C0F0C7968D9359
:1046F0009D932F5F243159F74FBF8091E800877F4A
:104700008093E8006AE270E0CE0101960E94DB1F10
:104710008091E8008B778093E80057C0C096E7CF80
:1047200060916D0270916E02AE014F5F5F4F0E940B
:104730001B1FBC01892B09F448C09091E800977FAA
:104740009093E80089819A810E943920E1CF8038D6
:10475000E1F58091E800877F8093E8008091640212
:104760008093F10045CF811130C090916B0292305F
:1047700060F58091E800877F8093E8009093640261
:104780000E94CC2080916402882311F084E005C04F
:104790008091E30087FDFACF81E0809368020E9458
:1047A000051E13C080916B02813079F481E0933053
:1047B00009F080E0809366021092E9008091E800A1
:1047C000877F8093E8000E94CC208091E80083FFDF
:1047D0000AC08091E800877F8093E8008091EB0019
:1047E00080628093EB00AA96E3E00C94CD240895B8
:1047F000CF93809168028823A1F0C091E900CF7027
:104800009091EC00892F817090FD80E8C82B109268
:10481000E9008091E80083FD0E94B022CF70C09330
:10482000E900CF91089587FB082E062687FD819524
:1048300067FD61950E94D9240EF4919507FC81953E
:104840000895AA1BBB1B51E107C0AA1FBB1FA617D7
:10485000B70710F0A61BB70B881F991F5A95A9F729
:1048600080959095BC01CD01089597FB072E16F415
:10487000009407D077FD09D00E94212407FC05D0C1
:104880003EF4909581959F4F0895709561957F4F67
:104890000895A1E21A2EAA1BBB1BFD010DC0AA1F81
:1048A000BB1FEE1FFF1FA217B307E407F50720F099
:1048B000A21BB30BE40BF50B661F771F881F991F14
:1048C0001A9469F760957095809590959B01AC015D
:1048D000BD01CF010895EE0FFF1F0590F491E02D6B
:1048E00009940E947924332312F48A1B9B0B0C94A5
:1048F0008A24A29FB001B39FC001A39F700D811DA8
:104900001124911DB29F700D811D1124911D0895D8
:104910000E947924B7FF0895821B930B08950E948B
:104920007924A59F900DB49F900DA49F800D911D9B
:1049300011240895B7FF0C948F240E948F24821BAA
:10494000930B08952F923F924F925F926F927F92B6
:104950008F929F92AF92BF92CF92DF92EF92FF928F
:104960000F931F93CF93DF93CDB7DEB7CA1BDB0B3B
:104970000FB6F894DEBF0FBECDBF09942A883988E0
:1049800048885F846E847D848C849B84AA84B984E7
:10499000C884DF80EE80FD800C811B81AA81B981F3
:1049A000CE0FD11D0FB6F894DEBF0FBECDBFED0107
:1049B0000895991B79E004C0991F961708F0961B7B
:1049C000881F7A95C9F780950895FB01DC0102C024
:1049D00005900D9241505040D8F70895FC01415088
:1049E000504030F001900616D1F73197CF0108956D
:1049F000882799270895FB01DC0104C08D9101905F
:104A0000801921F441505040C8F7881B990B089534
:104A1000F999FECF92BD81BDF89A992780B5089586
:104A2000A6E1B0E044E050E00C944225A8E1B0E0FB
:104A300042E050E00C944225262FF999FECF92BD1A
:104A400081BDF89A019700B4021639F01FBA20BD53
:104A50000FB6F894FA9AF99A0FBE08950396272F85
:104A60000E941D250E941C25252F0E941D25242FF4
:104A70000C941D250196272F0E941D250C941C25A2
:104A8000DC01CB01FC01F999FECF06C0F2BDE1BD0E
:104A9000F89A319600B40D9241505040B8F70895FD
:104AA000F894FFCF9B049B04CC04CC045905FB0471
:104AB000FB04FB047505010610061006D422FC2237
:104AC000E523FC22E5232F235023E523A723B3234B
:104AD0000102010102000500050501191A1B1C1D38
:104AE0001E1F202122761D7A1DDC1DD71DD21D79A7
:104AF0001D01E200E900EA00B500B600B700CD00F4
:104B00008301CC008A019201940121022302240234
:104B10002502260227022A02B300B4006F007000AB
:104B2000818283E200E900EA00B500B600B700CD5B
:104B3000008301CC008A0192019401210223022406
:104B4000022502260227022A02B300B4006F007079
:104B50000081828392919000010202020206060601
:104B60000909090909090F0F0F0F0F0F151515185E
:0C4B7000191919191919191919192324F8
:00000001FF
