:100000000C94DB010C9413020C9413020C94130255
:100010000C9413020C9413020C9413020C9413020C
:100020000C9413020C9413020C94E2200C94B6214D
:100030000C94E61B0C9413020C9413020C94130200
:100040000C9413020C9413020C9413020C941302DC
:100050000C9413020C946D1C0C9413020C94130258
:100060000C9413020C9413020C9413020C941302BC
:100070000C9413020C9413020C9413020C941302AC
:100080000C9413020C9413020C9413020C9413029C
:100090000C9413020C9413020C9413020C9413028C
:1000A0000C9413020C9413020C941302E00006004B
:1000B000190000047F3F1F643214643214783C1E20
:1000C0001E140A052223252628292A2C2D2F3032FA
:1000D000333536383A3B3D3E4042434547494A4C2A
:1000E0004E5051535557595A5C5E60626466686958
:1000F0006B6D6F71737577797B7D7F818385878960
:100100008A8C8E90929496989A9C9E9FA1A3A5A764
:10011000A8AAACAEAFB1B3B4B6B8B9BBBCBEBFC190
:10012000C2C3C5C6C7C9CACBCCCDCED0D1D2D2D31B
:10013000D4D5D6D7D7D8D9D9DADADBDBDBDCDCDC2F
:10014000DCDCDDDDDDDDDCDCDCDCDCDBDBDBDADAF2
:10015000D9D9D8D7D7D6D5D4D3D2D2D1D0CECDCC69
:10016000CBCAC9C7C6C5C3C2C1BFBEBCBBB9B8B67E
:10017000B4B3B1AFAEACAAA8A7A5A3A19F9E9C9A09
:1001800098969492908E8C8A89878583817F7D7BD7
:1001900079777573716F6D6B6968666462605E5CB8
:1001A0005A5957555351504E4C4A4947454342407E
:1001B0003E3D3B3A3836353332302F2D2C2A292814
:1001C00026252322FFAA7F554004000102030001D7
:1001D0000101010101010101020202020202020207
:1001E00002030303030303030304040404040404D9
:1001F000050505050506060606060707070707089D
:10020000080808090909090A0A0A0B0B0B0C0C0C4F
:100210000D0D0D0E0E0E0F0F0F10101111111212E9
:1002200013131414151516161717181819191A1A66
:100230001B1B1C1D1D1E1E1F2020212222232424C7
:10024000252626272829292A2B2C2D2D2E2F303103
:100250003232333435363738393A3B3C3D3E3F4015
:100260004142434445464748494A4C4D4E4F505100
:100270005354555658595A5B5D5E5F6162646566BA
:1002800068696B6C6D6F7072737577787A7B7D7E41
:100290008082838587888A8C8E8F91939596989A91
:1002A0009C9EA0A2A3A5A7A9ABADAFB1B3B5B7BAA9
:1002B000BCBEC0C2C4C6C9CBCDCFD1D4D6D8DBDD7D
:1002C000DFE2E4E7E9EBEEF0F3F5F8FAFDFF160301
:1002D00054006800650020004B0065007900200094
:1002E0005600320000000A03440072006F007000E4
:1002F00000000403090409023B00020100A0FA09FE
:100300000400000103010100092111010001224044
:100310000007058103080001090401000103000032
:10032000000921110100012232000705820320008B
:10033000011201000200000008EDFE0000020001B1
:1003400002000105010980A101850319012AB700F6
:10035000150126B700950175108100C0050C090133
:10036000A101850419012AA002150126A002950108
:1003700075108100C005010906A101050719E029D2
:10038000E715002501950875018102950175088121
:10039000010507190029FF150026FF0095067508BD
:1003A000810005081901290595057501910295013E
:1003B00075039101C00011241FBECFEFDAE0DEBF4C
:1003C000CDBF04B603FE18C080916F0290917002F9
:1003D000A0917102B09172028730904BA740B04B50
:1003E00059F410926F0210927002109271021092E2
:1003F0007202E0E0F8E3099511E0A0E0B1E0E4E684
:10040000F9E402C005900D92AC3AB107D9F722E0A9
:10041000ACEAB1E001C01D92AF36B207E1F70E942D
:10042000A6100C949A240C94000081E0089581E0B9
:1004300008950E941702089508950E941C020895CD
:10044000A5E0B0E0E6E2F2E00C94FB2349835A8396
:100450003091AF0189819A81311119C0662399F0D9
:10046000222389F00E941208182F682F89819A810F
:100470000E94F70769817A81812F0E94750E259667
:10048000E3E00C9417240E940408182FF3CF0E9475
:10049000120869817A81F1CFFC01262F40815181B8
:1004A0006281738184810E942002089581E0089511
:1004B000CF93DF93EC0160E00E944C02BE010E94EA
:1004C0001D02DF91CF9108950E94AE0F08950E9402
:1004D000B20F089508950E9446060E946A022FEF07
:1004E00084E39CE0215080409040E1F700C0000090
:1004F00008950E946B020E94911C08950E946B0255
:100500000E94B51C08950F931F93CF93DF938C0126
:1005100061E00E944C02EC01B8010E9419028111B5
:1005200006C080E0DF91CF911F910F910895B8012F
:10053000CE010E94B11A8823A1F3B801CE010E9416
:10054000E618882371F3B801CE010E94231A88238C
:1005500041F3B801CE010E94F217882311F3F8018C
:100560008281882361F0CB35FDE5DF0701F158F486
:10057000C115ECE5DE0791F0CF3DDC4591F0C801F7
:100580000E941502CFCFCD358DE5D80769F090F0E8
:10059000C83ADD45A1F70E947E02C3CF0E947902CE
:1005A000C0CF0E94D80CF7CF0E94120CE8CF0E9457
:1005B0001C0CE5CF0E94200CE2CF0E94C81B0E94B9
:1005C000FE020E94F91508950E9402030E943D1741
:1005D0000E94CD1B089508950E94EB02089581E0CA
:1005E00008950E94EF0208950895CF93C82F0E94A6
:1005F000EC028C2F0E94F102CF91089580E00E94BE
:10060000F50208950E940D1B0E94F50208950E94B4
:100610000D1B9091AE01981721F08093AE010E94BE
:10062000F5020895ABE0B0E0E8E1F3E00C94FC23C0
:100630004F83588769877A878B8761110E945D0B8A
:100640001E821D8285E0FE013796DE011196019023
:100650000D928A95E1F78C819D81892B61F4498106
:100660005A816B817C818D819E810E94860A2B96A6
:10067000E2E00C94182489819A8189238F3F79F3D1
:10068000CE0101960E9456028111E9CFF0CFFC0104
:10069000808191810E944C080895CF93C82F8823B0
:1006A000B9F08CEF8C0F813AA8F46C2F8091000187
:1006B000909101010E94631B882329F08C2F0E94D6
:1006C0001D0B0E947E0B8C2F0E94150B0E947E0B2F
:1006D000CF91089580E28C0F883048F4C77081E094
:1006E00001C0880FCA95EAF70E94400BEFCFEBE5F7
:1006F000EC0FE33040F4F0E0E05BFE4F808190E0EF
:100700000E94251BE5CFC85AC73110F7EC2FF0E047
:10071000EE0FFF1FEE5DFE4F808191810E943B1B1B
:10072000D7CF882339F19CEF980F913A28F40E9493
:100730001D0B0E947E0B089590E2980F983050F4A4
:10074000877091E001C0990F8A95EAF7892F0E947E
:10075000460BEFCF9BE5980F933028F490E080E0B4
:100760000E94251B0895885A873120F490E080E08C
:100770000E943B1B08951F93CF93DF93182FEB012B
:100780000E944D03209739F4812F0E949103DF913D
:10079000CF911F9108958FE99FE00197F1F700C075
:1007A00000002197EFCF70E060E0893311F460E53D
:1007B00070E00E94BB030895882321F00E94400B43
:1007C0000E947E0B0895882321F00E94460B0E9410
:1007D0007E0B0895B0E0A0E0E0EFF3E00C94F52389
:1007E0006C01D62FC72FFC011281F580F2949FE097
:1007F000F9220E94360BE82E8823B9F0E12E11234E
:10080000A1F08C2F807F803421F080E28D0F883022
:10081000D0F08091470282FF16C082E00E94E10B77
:100820000E94360B91E0E82EE926BC2EB2948FE0B0
:10083000B822FBE0FB1508F468C0EB2DF0E0E456AD
:10084000FB4D0C94B523E12CF0CF0C2F0F70C07F23
:1008500011F00295007F112399F0002359F080E2F6
:100860008D0F883010F0D11107C0802F0E94400BEF
:100870000E947E0B8D2F41C0802F0E94500BF8CF1D
:100880008D2F0E949103002309F43FC080E28D0F59
:10089000883010F0D11104C0802F0E94460B03C095
:1008A000802F0E94560B0E947E0B2FC00C2F0F70C2
:1008B000C07FC03211F00295007FDD2381F0D1307E
:1008C00009F463C0112309F46DC0FF2009F463C06B
:1008D000F601858180FFCECF8F7085835CC08091CB
:1008E000470282FD33C0112359F0002329F0802FE5
:1008F0000E94400B0E947E0B80E00E944D0305C0C9
:1009000080E00E9491030111C7CFEB2DE850FF0B4F
:10091000349720F40E940D1B0E94F502EE2089F00E
:100920000E94320B80FD0DC0F60112820E942C0B3A
:100930000E94FF06C6010E940A060E942C0B0E941C
:100940002107CDB7DEB7E9E00C941124112389F01B
:10095000F11006C00E94600B802B0E94DC03D5CFF3
:1009600021E0F212F7CF0E94600B802B0E94670BF0
:10097000CCCFF11006C00E94740B802F0E94E303BD
:10098000C4CF31E0F31609F2F6CF112331F085E040
:100990008F1508F4BACF802FE0CF94E09F1508F4AC
:1009A000B4CFEBCFFF2049F3D93349F4FFEF27EE63
:1009B00033E0F15020403040E1F700C000008D2FBF
:1009C0000E949103A2CF8C2F86958695837069F043
:1009D000813009F09ACF8D2F9C2F9370111102C096
:1009E00090E080E00E943B1B90CF8D2F9C2F937056
:1009F000111102C090E080E00E94251B86CF8C2F51
:100A0000837009F041C0111180CF4D2F429546955A
:100A10004770440F440F0D2F0F7010E030E020E0BE
:100A2000042E04C0000F111F221F331F0A94D2F797
:100A300060E070E0CB01D4FF0FC06FE070E080E0B9
:100A400090E004C0660F771F881F991F4A95D2F760
:100A50006095709580959095C695C695C370602BEE
:100A6000712B822B932BC23049F058F4C13019F00E
:100A70000E94AA064ACF0E94970647CF0E94BD0651
:100A800044CF0E94940641CF8695112311F08C2FFC
:100A90008170882309F439CF4D2F429546954770D0
:100AA000440F440F0D2F0F7010E030E020E0042EB3
:100AB00004C0000F111F221F331F0A94D2F760E0F9
:100AC00070E0CB01D4FF0FC06FE070E080E090E0F9
:100AD00004C0660F771F881F991F4A95D2F760954B
:100AE000709580959095C695C695C370602B712BB7
:100AF000822B932BC23049F058F4C13019F00E9478
:100B00007A0703CF0E94670700CF0E948D07FDCEB2
:100B10000E94D606FACECF70112329F08C2F0E94A6
:100B2000FF068D2F1ACF8D2F0E94E3038C2F0E947A
:100B30002107EBCED23F51F160F4D03FB9F0D13F65
:100B400081F0112309F449C0F11094CE8C2F8F71DC
:100B500021C0D33F11F1D43FA1F78091470282FD1C
:100B600026C08C2F8F71112311F314C0112349F06B
:100B700084E08F1508F4C9CE8C2F8F710E94450731
:100B8000C4CE95E09F1508F4C0CEF6CF8C2F8F71A0
:100B90001111CDCF0E94FF06B8CE112329F08C2F62
:100BA0008F710E94E906B1CE0E94E306AECE1123FA
:100BB00049F0CF718C2F0E94FF0663E08C2F0E94BA
:100BC000C30BA3CE81E00E94E10BE1E0EF1508F03A
:100BD0009CCE82E00E94E10B98CEF110E5CE8C2FE6
:100BE0008F71A5CF0F931F93CF93DF93EC01688193
:100BF00079818A810E9457088C010E94A0070E9477
:100C00009306B801CE010E94EA03DF91CF911F91B4
:100C10000F910895CF93DF93EC018B819C81892BF9
:100C200029F08881998189238F3F51F4DF91CF91F9
:100C30000895CE010E94F205CE010E945802F6CF1F
:100C4000CE010E9483028111F4CF0E94360B8823CB
:100C500069F38A81882351F38091470282FFE6CFAE
:100C600082E00E94E10BE2CF90E080E00E94251B31
:100C700090E080E00E943B1B0E945D0B0E947E0B77
:100C800008950E94250B0E94340608950E944D0B82
:100C90000E944106089592959F70963091F058F405
:100CA000925F9F70923058F4803F19F030F4883E84
:100CB00030F481E008959A5FF4CF843FD1F380E06F
:100CC0000895883EB0F3813FD1F7F3CFFC018081D6
:100CD00091810E944C080E944B060895A5E0B0E067
:100CE000E4E7F6E00C94FC232596E2E00C9418244B
:100CF000A6E0B0E0EEE7F6E00C94FC232696E2E0F6
:100D00000C94182408950E94820608950E94830678
:100D10006093B9017093BA018093BB019093BC01B9
:100D20000E943406089508950E94860608950F9340
:100D30001F930091B9011091BA012091BB0130912C
:100D4000BC01602B712B822B932B0E9486061F9176
:100D50000F9108950F931F930091B9011091BA015B
:100D60002091BB013091BC01602371238223932326
:100D70000E9486061F910F9108950F931F93009173
:100D8000B9011091BA012091BB013091BC016027DB
:100D90007127822793270E9486061F910F9108953D
:100DA0000E94820608950E94D00608950E94D306EC
:100DB0006093B5017093B6018093B7019093B80129
:100DC0000E943406089560E070E0CB010E94D606D0
:100DD00008950F931F9341E050E060E070E08A01B6
:100DE0009B0104C0000F111F221F331F8A95D2F7E9
:100DF000C901B8010E94D6061F910F9108950F9363
:100E00001F9341E050E060E070E004C0440F551FC4
:100E1000661F771F8A95D2F78091B5019091B60130
:100E2000A091B701B091B8018A019B01082B192B41
:100E30002A2B3B2BC901B8010E94D6061F910F91A6
:100E400008950F931F9341E050E060E070E004C00C
:100E5000440F551F661F771F8A95D2F7CB01BA0141
:100E600060957095809590950091B5011091B601AF
:100E70002091B7013091B80160237123822393231D
:100E80000E94D6061F910F9108950F931F9341E082
:100E900050E060E070E004C0440F551F661F771FEC
:100EA0008A95D2F78091B5019091B601A091B701D2
:100EB000B091B8018A019B01082719272A273B27EF
:100EC000C901B8010E94D6061F910F9108950F9392
:100ED0001F930091B5011091B6012091B701309197
:100EE000B801602B712B822B932B0E94D6061F9189
:100EF0000F9108950F931F930091B5011091B601C2
:100F00002091B7013091B80160237123822393238C
:100F10000E94D6061F910F9108950F931F93009181
:100F2000B5011091B6012091B7013091B801602749
:100F30007127822793270E94D6061F910F9108954B
:100F40000895262F277091E001C0990F2A95EAF79E
:100F500023E0769567952A95E1F725E0269FF00135
:100F6000279FF00D1124E40FF51F50E040E0682F9B
:100F700070E08191DF0111979B01042E02C036952C
:100F800027950A94E2F721702195282729232827FD
:100F90002C934F5F5F4F4530510559F70895A82FA7
:100FA000A77023E0969587952A95E1F725E0289F7D
:100FB000F001299FF00D1124E60FF71F50E040E0EB
:100FC00080E0219130E00A2E02C0369527950A94E0
:100FD000E2F721703327042E01C0220F0A94EAF7AA
:100FE000822B4F5F5F4F4530510559F70895262FEB
:100FF000911109C0833038F4682F70E040EB51E064
:10100000822F0E94A107089591110AC0833030F405
:1010100060EB71E090E00E94CF07982F892F089530
:1010200090E0FCCFB0E0A0E0E8E1F8E00C94F5231C
:101030008C01C090B501D090B601E090B701F0905E
:10104000B8018091B9019091BA01A091BB01B09112
:10105000BC01C82AD92AEA2AFB2ACFE1D0E0BC2E5B
:10106000D701C6010C2E04C0B695A7959795879514
:101070000A94D2F780FD09C0219788F7B12C8B2DF7
:10108000CDB7DEB7E9E00C941124B8018C2F0E9493
:101090008A0E019789F3F3CFCF93DF93EC010E947F
:1010A0001208BE010E948A0EDF91CF9108951F930E
:1010B000CF93DF93EB019091AF01992339F0CB01EE
:1010C0000E944C08DF91CF911F910895882369F009
:1010D000CB010E941208182F682FCE010E94F7073B
:1010E000BE01812F0E948A0EEDCFCB010E94040821
:1010F000182FF6CF1F93CF93DF93C091BD0116E059
:101100008091BE018C1304C0DF91CF911F9108958F
:10111000D0E01C9FF0011D9FF00D1124E154FE4F03
:101120004081518162817381848195810E9478061A
:101130002196C770E5CF4091EF015091F001609189
:10114000F1017091F2018091F3019091F4010E94FC
:10115000780608951F93CF93DF938091F401807FE9
:1011600009F049C08091F101882309F444C08091BD
:10117000BD01C091BE016091EF017091F001A0919D
:10118000F201B091F301D62FD72316E0C81799F1D9
:1011900090E0109711F0DF3F19F401968770F6CFB9
:1011A000189F9001199F300D1124F901E154FE4F51
:1011B00041814713F2CF40814613EFCF4281411165
:1011C000ECCF438154814A1B5B0B483C510528F707
:1011D0008091F4018F7080618093F401F901EC53E8
:1011E000FE4F80818F70806180838FEE91E00E943E
:1011F0000A060E947A08DF91CF911F910895A1E11C
:10120000B0E0E5E0F9E00C94F4238C0185E0F8010E
:10121000DE011D9601900D928A95E1F7F801E280BA
:101220008FEEC82E81E0D82E6091F2017091F3010B
:101230006115710509F44EC19091EF012091F00103
:10124000892F82238F3F09F445C140815181A380BA
:10125000B480F090F101F501E61BF70BFF2009F4D3
:10126000EAC08091F401382F307FE83CF10508F0A6
:10127000A3C031116DC0FE2C251316C0941314C0E9
:10128000E11012C08F7080618093F4010E949B086E
:10129000C6010E940A068091F401F80185838F2D12
:1012A0006196EAE00C941024A114B10429F0842F73
:1012B00085238F3F09F027C180E0F82FF170DF2EE2
:1012C00080FF3CC08091BD012091BE0136E08213B9
:1012D00015C04D875E878D859E850E944C08292FFD
:1012E00022952F702230F0F0243018F59F70F1F025
:1012F000F8019581907FD1F4D12C1EC090E0389FE9
:10130000F001399FF00D1124E154FE4F6181651306
:1013100006C06081641303C06281E6120FC00196AB
:101320008770D5CF9F7011F0882331F3805E8830AD
:1013300018F3C8010E940A06FD2CB1CFEE2009F473
:10134000AECF8091F40181608093F401F12CA7CF9E
:10135000251306C0941304C0F801EE2009F487C0D9
:10136000C8010E946606882319F1EE2009F18091D8
:10137000F401803270F02091EF013091F001388754
:101380002F831986BB86AA868C87CE0107960E947A
:101390000A0686E0F801AFEEB1E001900D928A9561
:1013A000E1F70E94AA080E949B08FF24F39477CFDC
:1013B000C8010E940A06F9CF311113C07A2DB98AEB
:1013C000A88A6E2D89890E946E068FEE91E00E9498
:1013D0000A0686E0F60111928A95E9F70E949B08B9
:1013E000B5CF25130FC094130DC0E1100BC0F80149
:1013F0008583C8010E940A0686E0F60111928A954B
:10140000E9F74DCFC8010E946606882389F2EE20D5
:1014100079F28091F401803208F4BBCF2091EF0182
:101420003091F0013A8329831B82BD82AC828E8386
:10143000CE010196ACCFE83CF10508F03EC0FE2C91
:10144000EE2009F4B5CF25132AC0941328C080914B
:10145000F40180FD1BC0982F907FC1F0F8018583B7
:10146000903F31F0982F907F905F8F70892B85830C
:10147000C8010E940A0686E0F801AFEEB1E00190D3
:101480000D928A95E1F70E949B0809CF86E0F8014A
:10149000AFEEB1E001900D928A95E1F700CFC8015F
:1014A0000E946606811175CF8091F401816080935E
:1014B000F401C8010E940A06F2CE7A2DB98AA88AE0
:1014C0006E2D89890E946E0686E0F60111928A953A
:1014D000E9F7D9CFEE2009F46BCFC8010E94660668
:1014E000F82E882309F464CF86E0F801AFEEB1E06E
:1014F00001900D928A95E1F78FEE91E00E944703EB
:101500000E94AA08C0CF81E08E25D7CEACE0B0E023
:10151000ECE8FAE00C94FB234F83588769877A87BD
:101520008B879C87CE0107960E94FF08882369F06D
:101530008A859B85892B39F04F815885842F852397
:101540008F3F09F06BC016E05FC086E0FE01379662
:10155000DE01119601900D928A95E1F78A859B85AF
:10156000892B89F38F81988589238F3F61F320919F
:10157000BE0130E0C9010196877099274091BD01F5
:101580004817190671F40E9446061092BE01109287
:10159000BD0186E0EFEEF1E0DF011D928A95E9F7EB
:1015A000D2CF96E0929FD001939FB00D1124A15409
:1015B000BE4FFE01319601900D929A95E1F780930E
:1015C000BE010E947A08BFCF819FC00111248154BF
:1015D0009E4F0E94FF088823E9F0E091BD011E9F05
:1015E000F0011124E154FE4F4081518162817381E9
:1015F000848195810E9478068091BD0190E00196DA
:10160000877099278093BD018091BD019091BE01A3
:101610008913DACF2C96E3E00C94172469857A8538
:101620008B859C850E9478068ECF682F8091000163
:10163000909101010E94991B0895682F80910001EB
:10164000909101010E949C1B08958091000190914E
:1016500001010E949F1B08958091FD01859585954C
:10166000859508958091FD01877008959091FD0101
:10167000977081E009F480E0089580910802089550
:1016800090910802892B809308020895809590918B
:101690000802982390930802089510920802089572
:1016A00090910702892B809307020895809590916D
:1016B0000702982390930702089510920702089555
:1016C0008091FE01089508950E94630B0895909102
:1016D000470292FF08C09091FE01981721F0809375
:1016E000FE010E94640B08958091FE01882329F079
:1016F0001092FE0180E00E94640B0895CF93DF9367
:10170000E0910001F0910101809108028083E09155
:101710000001F0910101808190910702892B808363
:101720009091FE01992381F0E0910001F091010177
:101730008081892B808380910001909101010E941A
:10174000511B81110E94740BC0910001D0910101C5
:1017500048E050E065EF71E0CE010E944524892BFE
:1017600059F088E0FE01A5EFB1E001900D928A9555
:10177000E1F7CE010E941A1BDF91CF9108950895E1
:101780000E94BF0B08959091470292FF11C098E00C
:10179000899F90011124622B6093FD010E94FF0636
:1017A0008091FD018595859585950E94C00B0895D2
:1017B0000E94FF0608951092FD0180E00E94C00B78
:1017C00008959091FD01809589238093FD01282F34
:1017D000277091F4282F082E000C330B9217130654
:1017E00059F09091470292FF07C0859585958595A0
:1017F0000E9421070E94DB0B08959091470292FB03
:10180000222720F9281769F080FB92F9909347026C
:1018100080914602909147020E944E0C82E00E9405
:10182000E10B08958091470282FB882780F991E0BF
:1018300089270E94FD0B089581E00E94FD0B089509
:1018400080E00E94FD0B08956FEF7FEF90E080E055
:101850000E948424089590E080E00E94602421E0AA
:10186000883E9E4F09F020E0822F089582E090E0AC
:101870000E945224089583E090E00E94522408952B
:10188000CF9384E090E00E945224C82F82E290E03F
:101890000E945224982F8C2FCF910895CF93C92F57
:1018A000682F84E090E00E9466246C2F82E290E032
:1018B0000E946624CF910895AB01BC018FE090E0B7
:1018C0000E9478240895AB01BC0183E190E00E945E
:1018D0007824089560E070E0CB010E94630C0895C5
:1018E00060E070E0CB010E945C0C0E946A0C0895DD
:1018F00068EE7EEF90E080E00E94842460E082E069
:1019000090E00E94662460E083E090E00E946624FC
:101910001092B9011092BA011092BB011092BC0151
:1019200060E084E090E00E94662464E082E290E05F
:101930000E94662460E085E090E00E94662460E0FA
:1019400086E090E00E9466246FEF87E090E00E94BE
:10195000662440E050E0BA0188E090E00E947824DC
:1019600060E08DE090E00E94662440E050E0BA0123
:1019700088E190E00E94782460E087E190E00E9496
:10198000662440E050E0BA018CE190E00E947824A7
:1019900070E060E080E290E00E94842440E050E04B
:1019A000BA0188E190E00E9478240E94700C0895AA
:1019B0000E94780C0895682F8EE090E00E946624C3
:1019C00008950E94521C60930E0270930F02809340
:1019D00010029093110260930A0270930B0280939D
:1019E0000C0290930D020895089508950E94F50C3D
:1019F000089508950E94F90C089589E69FE00E94D9
:101A0000031B0E94F40C0E94F60C089581E00895D7
:101A10000E94060D0895089508950E940B0D0E94DE
:101A20000C0D08950E94880F0E94F40208950E94F0
:101A30003D1C0E942A100E94120D0E949E160E94B8
:101A4000FA0C0895AAE0B0E0E8E2FDE00C94F82377
:101A50000E943610E82E81110E94E10C80E00E9465
:101A6000B50F182F80910902082F0127811311C08B
:101A70008FEF89838A831B820E94461C8160782FA6
:101A80009D838C8349815A816B818D810E941203D1
:101A90002DC08091120281FD0E94BB0F802F8170AA
:101AA000F82E00FD2BC001FD2BC002FFE1CF02E0AC
:101AB00094E0F92E0E94080D882399F00E831F826E
:101AC0001F2181E009F480E088870E94461C816024
:101AD000782F9A8789874E815F8168858A850E94E1
:101AE000120380910902F826F092090281E0E110C8
:101AF00001C080E02A96E6E00C94142400E0DACFDE
:101B000001E082E0F82ED6CF0E94220D0E944717F6
:101B10000E9407030895CF93DF930E948F0EEC017C
:101B2000811522E59207E8F5811531E5930708F064
:101B3000ACC0883E910510F5803E910570F5883A5D
:101B4000910570F4853A910508F078C081309105CF
:101B500021F1009711F1049700F5D0E0C0E01DC01D
:101B60008F3B9105D0F7C85AD0E0CC0FDD1FCD5A7E
:101B7000DE4F0990D881C02DD4640FC0811540E597
:101B8000940708F066C0C11580E4D80708F05EC06D
:101B9000CE019A9581159F4100F7CE01DF91CF913B
:101BA0000895811536E5930718F5811545E59407E5
:101BB00008F083C0C11584E5D80708F079C09C2FD0
:101BC000969596959E0123703327C115D34508F449
:101BD00061C0C1E0D0E002C0CC0FDD1F2A95E2F762
:101BE00030E2939FC0011124C82BD92BDA68D5CFDE
:101BF000C1158AE5D80778F4C11599E5D90708F029
:101C000066C0C11528E5D20708F4A7CFDC2FCC2782
:101C1000C06FD06AC2CFCE0190568115904208F0B5
:101C20009CCF8D2F8F710E94260F90E0982F8827D0
:101C300088279F719C012C2BE90147C0C55AD0E031
:101C4000CF57DE4FC881D0E0D064A7CFDF70D06A15
:101C5000A4CFE4E096958795EA95E1F783702C2F61
:101C600026952695237040E2249F90011124382B5D
:101C70008C2F8370C1E0D0E002C0CC0FDD1F8A95AD
:101C8000E2F7C22BD32BDC6888CFD82FCC27C16FCB
:101C9000D06A83CFC1E0D0E002C0CC0FDD1F2A950F
:101CA000E2F720E2929FC0011124C82BD92BEBCF81
:101CB000DC2FCC27C46FD06A70CF0E94260FC82FAC
:101CC000D0E0DC2FCC27CC27DF71D06266CF8C2F01
:101CD0008F700E94260F34E0D695C7953A95E1F7AC
:101CE000CF709C2FEC01D06958CF711110C06330B8
:101CF00070F4E62FF0E093E0899FE00DF11D1124D0
:101D0000EE0FFF1FE455FF4F85919491089580E0F9
:101D100090E008950E94750E0E948B0D0895823800
:101D20009105B1F1B0F48133910509F475C048F41F
:101D30008932910509F469C08A32910509F473C0AA
:101D400008958533910509F459C08933910501F14E
:101D50000895833E9105A9F138F4803E9105F9F08C
:101D6000823E910549F10895863E9105A9F1873E8D
:101D70009105C9F1843E910519F52091470221FF93
:101D80001FC08091460284FD14C087EE90E0089544
:101D9000209146022370A1F080EE90E008952091FA
:101DA000460220FD47C03091470230FF09C024FFA2
:101DB00044C090E080E004C02091460222FDF7CFAD
:101DC00008952091460222FD3BC03091470230FD2C
:101DD000E3CF24FFF5CFEDCF2091460223FFF0CFD4
:101DE00024FDE7CFD2CF2091460223FD2CC03091B5
:101DF000470231FFEECF84EE90E008952091460235
:101E000025FFDECF89E290E008952091460225FF6C
:101E1000D7CF85E390E008952091460226FFD0CFEA
:101E20008AE290E008952091460226FFC9CF81E31F
:101E300090E0089589E390E0089583EE90E008959E
:101E400082EE90E0089586EE90E00895909146022B
:101E500092FF06C0282F28712830F9F4877F84600C
:101E600093FF06C0282F28712831F1F4877E846102
:101E70002091470220FF06C0382F38713830D9F43E
:101E8000877F816021FF06C0282F28712831D1F477
:101E9000877E816194FD877E0895282F24712430E8
:101EA000F9F68B7F8860DCCF282F2471243101F76D
:101EB0008B7E8861DDCF382F3171313019F78E7FFD
:101EC0008860E0CF282F2171213121F78E7E886133
:101ED000E1CF80E008950E94240C08950E943610FE
:101EE0002FEF86E791E0215080409040E1F700C05D
:101EF00000000E94361080E00E94B50F80FF04C0F1
:101F00000E946B0F0E94911C08950E946E0F08950D
:101F10000E942B0C811102C00E94D80C0E94360C2A
:101F2000809312020E94400C9093470280934602D5
:101F30000E94850F0E943B0C682F70E090E080E0CB
:101F40000E9494066091B5017091B6018091B7012D
:101F50009091B8010E94D306089508950E94AD0F94
:101F6000089508950E94B10F0895E82FF0E0E75B0F
:101F7000FD4F80810895089580EA8A95F1F70895CC
:101F800000C008950E94BC0F0895F894E82FE295D0
:101F9000EF70F0E031A1282F2F7081E090E001C0B8
:101FA000880F2A95EAF7982F9095932391A392A1F1
:101FB000892B82A37894089582E90E94C50F81E954
:101FC0000E94C50F80E90E94C50F84E90E94C50FD9
:101FD0000895EF92FF920F931F93CF93DF938C019D
:101FE000F62EE42EC62FD0E0CC57DE4F28812F3FAF
:101FF00039F1F894E22FE295EF70F0E031A12F7003
:1020000081E090E001C0880F2A95EAF7932F982B82
:1020100091A392A18095892382A378940E94C00FF6
:10202000F80180814C9911C08E29808311E088814C
:102030008F3F11F00E94C50F612F8F2D0E94C20F9C
:10204000CDB7DEB7E6E00C941424E0948E218083B3
:1020500010E0EDCF0E94DC0F10924902109248026E
:1020600081E00E9462100E9464020895A1E0B0E045
:10207000ECE3F0E10C94FA23198210E001E0402F28
:10208000612FCE0101960E94E90F1F5F000F1330F0
:10209000B1F790914802898111E0981301C010E0D6
:1020A000981380934802212F41E069E472E088E4AC
:1020B00092E00E9463100E946702812F2196E4E063
:1020C0000C9416240895FF920F931F93CF93DF93E0
:1020D000F82E092F162FD72FC42F222349F081E085
:1020E000809315020E94461C909314028093130261
:1020F000809115028823A1F080911302909114021F
:102100000E945E1C059760F0EF2DF02FA12FBD2FD0
:10211000CE0FDF2FD11DEC17FD0739F410921502F9
:10212000CDB7DEB7E5E00C94152481918D93F3CF04
:102130000E94381E0E94170D0E94451E08950E949D
:102140004A1E0E94840D0E94641E08950E94DF1B97
:102150000E941E1E0E94FD0C0E9498100E949F105B
:102160000E940D0DFBCFEF92FF920F931F93CF9321
:10217000DF93EB01E82FD1110EC0442321F0F0E0F2
:10218000E253FE4FE4916E2F7E2F8E2FCDB7DEB738
:10219000E6E00C9414240D2F10E0282F30E04423A7
:1021A00029F022533E4FF901249130E0F6E0CF9F11
:1021B000C0011124EFEFF0E0BF010E946B23AB01DF
:1021C0008C2F90E0880F991FA5E5A49FB001A59FD3
:1021D000700D1124861B970B982F990F980FBF0134
:1021E000601B710B629FD001639FB00D729FB00D99
:1021F00011248B2F9D9FB0011124672F7727EF01AA
:10220000C61BD70BBE01629FE001639FD00D729F7A
:10221000D00D11247F01E91AF108E09EB001E19E82
:10222000700DF09E700D1124672F7727E61BF70BBA
:10223000E29F8001E39F100DF29F100D1124E12F0A
:10224000722F4230510599F048F44115510569F05B
:102250004130510581F0EB2F8D2F07C044305105DF
:1022600069F080F046305105B1F76E2F8FCFE22F25
:102270007B2F812FFACFE22F7D2FF7CFEB2F822FED
:10228000712FF3CF7B2F822FED2FEFCF41E00E94F4
:10229000B310089508950E9446110895CF93DF93D7
:1022A000762FE901682F842F0E944B117983688370
:1022B0008A83DF91CF91089580914A02982F9E7F63
:1022C00029F48170826080934A0208958A34E8F389
:1022D00081708864F8CF88E090E00E945A240895C5
:1022E000CF92DF92EF92FF926B017C010E945C1112
:1022F000B701A60188E090E00E947824FF90EF905B
:10230000DF90CF900895EAE4F2E083E080831182C9
:102310008FEF8283838314826081718182819381B4
:102320000E947011089580914A0280FF02C0869534
:10233000089580E0089590914E02933018F49F5FC5
:1023400090934E02882351F060914A0270914B02A3
:1023500080914C0290914D020E947011089581E08D
:102360000E949B11089590914E02992319F091506B
:1023700090934E02882351F060914A0270914B0273
:1023800080914C0290914D020E947011089581E05D
:102390000E94B311089521E030E001C0220F8A9518
:1023A000EAF790912C02922381E009F480E00895ED
:1023B00070E00E94BA180895AFE0B0E0E2EEF1E1FB
:1023C0000C94F0237090060190914A0290FF35C062
:1023D000C0901F02D0902002C114D10409F040C067
:1023E000E9ECF1E09E012F5F3F4FBE01605F7F4F40
:1023F000C901A4914A2F50E0DA01AA0FBB1FA40F14
:10240000B51FA15BBD4FCD90DD90EC90D901CD9271
:10241000DD92ED929D0131966A177B0751F720916D
:102420000501672DB3E02B9F800D911D11240E94A3
:10243000D8112F96EEE00C940C2480910701209186
:10244000080133E0839FF0011124E15BFD4F821707
:1024500008F0BECF1182108212828F5F3396F7CFC1
:1024600090FFBECFF12CE12C43E0642E8E2D0E9414
:10247000CB11882309F43CC0F701EE0FFF1FEC0DD0
:10248000FD1DA590B490A114B10409F4A9CF45E0B5
:1024900050E0B501CE0101960E942F2409810F3F23
:1024A00039F18A81800F9927991F8630910514F0A0
:1024B00085E090E04C01880C991C880D991DDC0189
:1024C000A15BBD4F4D01069D80011124015B1D4F95
:1024D0000815190520F0B5E0AB0EB11CD8CF980156
:1024E0004D816C818B810E944E110D5F1F4FF0CF8B
:1024F0002FEFE21AF20A38E0E316F10409F0B6CF42
:102500006FCF90914A0290FF0EC0909107012091E9
:10251000080133E0939FF0011124E15BFD4F921716
:1025200018F00E94DC1108958183608342839F5FCD
:102530003396F5CFA3E0B0E0E0EAF2E10C94FC239F
:1025400090914A0290FF0AC09E012F5F3F4F0E9468
:102550004E114B8169818A810E9481122396E2E0AB
:102560000C941824CF93DF93EC01EC81F0E0EC5352
:10257000FF4F4491EAE4F2E0628181810E949A1265
:102580008C818F5F8C83DF91CF910895CF93DF9300
:10259000EC01EAE4F2E0438162818C810E949A12AC
:1025A0008C818F5F8C83DF91CF910895A3E0B0E0A1
:1025B000ECEDF2E10C94FA238C018091160281116A
:1025C0000AC09E012F5F3F4F4FEF6FEF0E944E11E9
:1025D0008A8180931602F8016481613069F08091EC
:1025E000160240E0662361F040E0623011F4409151
:1025F000160280E060E004C06091160240E080E0D6
:102600000E948112F801848190E0019663E070E0FD
:102610000E947F2384832396E4E00C941624A3E095
:10262000B0E0E5E1F3E10C94F523082FD62EE42E7B
:10263000C22E90914A0290FF29C0E92FE695AE2F55
:10264000B0E0A957BE4F8C9180932A029E7F9230B2
:1026500009F59E012F5F3F4F802F0E944E114B8145
:1026600069818A810E94811200934B02D0924C02B0
:10267000E0924D02CC2051F060914A0270914B02E1
:1026800080914C0290914D020E9470112396E9E0D6
:102690000C941124823019F4E0904D02E5CF86307D
:1026A00019F400914B02E0CF8930D9F38931E1F67A
:1026B000E9516E2F6170B62EE695F0E0EC53FE4FB7
:1026C0001491F12C60910901F61618F00E94DC11AA
:1026D000CBCFF19EC001112470E00E946B23802FAC
:1026E000B11014C0860F20910701622F6F0D77275C
:1026F000771F9B01220F331F260F371F215B3D4F92
:102700004E2D6D2D0E944E11F394DCCF861BEBCF26
:10271000EAE4F2E09181282F438162818AE0890F07
:102720000E940F13089581E00E9488130895EAE43F
:10273000F2E09181282F4381628186EF890F0E9408
:102740000F13089581E00E9497130895EAE4F2E0E0
:1027500062812AE0620F08F46FEF282F43818181A4
:102760000E940F13089581E00E94A6130895EAE4E1
:10277000F2E062812AE0621B08F460E0282F4381C6
:1027800081810E940F13089581E00E94B71308957C
:10279000EAE4F2E043812FE0420F08F44FEF282FE4
:1027A000628181810E940F13089581E00E94C81305
:1027B0000895EAE4F2E043812FE0421B08F440E090
:1027C000282F628181810E940F13089581E00E9469
:1027D000D913089520E00E940F130895EF92FF92FD
:1027E0001F93CF93DF93EC0110E0EE24EA94F12CD9
:1027F00060910901161770F00E94DC119A818C819A
:1028000090FF27C08F5F8C83DF91CF911F91FF9046
:10281000EF90089520910701422F410F5527551F32
:10282000CA019A01220F331F280F391F215B3D4F28
:1028300070E0C7010E947F23962F8C8140914D024A
:1028400060914C02199F800D11240E944E111F5F50
:10285000CFCF8150D8CFB0E0A0E0E1E3F4E10C9419
:10286000F423FC0182810FEF80FF01E010E045E0DE
:10287000A42E80910901181798F00E94DC11809114
:102880001802013009F04FC0811102C08091090186
:10289000815080931802CDB7DEB7EAE00C94102483
:1028A000C0910701C12ED12CCC0DDD2DD11DCE0143
:1028B000880F991FC80FD91FC15BDD4F198218827D
:1028C0001A8234E0E32EF12CB12C809118028B0D8A
:1028D00086301CF16A2D0E945D23892F082E000C82
:1028E000990BC816D90691F480914D028E9DA001D6
:1028F0008F9D500D112455954795559547959E01EF
:1029000060914C0280914B020E944E11B00EF1E09A
:10291000EF1AF108D1F61F5FACCF87FFDFCF9091A0
:102920000901890FDBCF90E001966091090170E009
:102930000E947F23AECF0F931F93CF93DF9380919D
:1029400007019091080123E0829FF0011124E15BCF
:10295000FD4F891740F1C0E0D3E060910901C6172F
:1029600040F10E94DC112091030180911702820F37
:102970008093170290910401920F9093040119160D
:1029800054F4082E000C990B409109014150550B4D
:10299000841795071CF0219520930301DF91CF91B7
:1029A0001F910F9108951182108212828F5F3396CA
:1029B000D0CF0C2F10E070E0C8010E947F2320913F
:1029C0000701820F482F50E020911702022E000CC1
:1029D000330B02171307BCF020910401022E000CE8
:1029E000330B201731077CF08D9F90011124215B60
:1029F0003D4F40914D0260914C0280914B020E94EC
:102A00004E11CF5FAACFFA01EE0FFF1FE40FF51FA3
:102A1000E15BFD4F118210821282F3CFB0E0A0E0A3
:102A2000E4E1F5E10C94F223EC014C81042F10E079
:102A30009801D8010E94C3239B01AC010E94D923B5
:102A40004B015C01E0E2F0E0E01BF10BA5E5B0E03A
:102A5000AC019B010E94D9236B017C019F01DF0126
:102A60000E94BB239B01AC010E94E4239B01AC01AB
:102A7000280D391D4A1D5B1DC701B6010E94932315
:102A8000F22E822F90E039E23F1520F143E0249F9F
:102A90009001112435952795122F109500E085E5BA
:102AA000E82EEF1880910901081718F10E94DC1137
:102AB0009C8181E0992319F0903219F48FEF809373
:102AC000020180910201890F8C83CDB7DEB7ECE063
:102AD0000C940E2425E530E0B901681B790B9B01AD
:102AE000220F331F260F371F37FFD4CF2F5F3F4FE3
:102AF000D1CF8E2D01FD8F2D20910701622F600F08
:102B00007727771F9B01220F331F260F371F215B6B
:102B10003D4F412F60914C020E944E110F5FC2CF7A
:102B20000F931F93CF93DF93EC0110E000E090919F
:102B300009019017110609F06CF40E94DC118C81D8
:102B400090E00196817099278C83DF91CF911F913E
:102B50000F91089520910701A801420F511D9A017C
:102B6000220F331F240F351F215B3D4F4C81609195
:102B70004C0280914B0296959017110651F04CF043
:102B8000442349F040914D020E944E110F5F1F4FA8
:102B9000CECF4423B9F340E0F7CFEAE4F2E08081FE
:102BA0008E7F808360817181828193810E94701108
:102BB00010922B022FEF80E792E02150804090404E
:102BC000E1F700C000000E94DC110895EAE4F2E0A1
:102BD00080818E7F808310922B022FEF80E792E01E
:102BE000215080409040E1F700C000000E94DC11BD
:102BF000089510922B0280912802811114C081E067
:102C00008093280280914A028170809327028091EC
:102C10001E02809590912C02892380932C021092A1
:102C20001E020E94E615089560914A02669570E0C2
:102C30004BE050E08AE091E00E943824892B19F49F
:102C400081E080932B020E94461C90932202809385
:102C50002102089590914A0290FF2BC0917081113A
:102C600029C0926090934A02662351F060914A0213
:102C700070914B0280914C0290914D020E94701114
:102C800060914A02669570E04BE050E08AE091E086
:102C90000E943824892BA9F010922B0281E08093A6
:102CA000240240914D0260914C0280914B020E949F
:102CB000EA130895853210F09864D4CF880F982BCA
:102CC000D1CF0E941416EACF682F90914A029695B0
:102CD00081E0890F853208F081E00E942A1608956C
:102CE00081E00E9464160895682F90914A0296959B
:102CF0008FEF890F09F484E20E942A16089581E07B
:102D00000E947416089561E00E942A160895EAE46C
:102D1000F2E080818160808386950E948316089509
:102D200080914A0280FF03C00E94CD1508950E9441
:102D30008716089560E00E942A160895809129025E
:102D400081112EC00E942B0C811104C00E94D80C4E
:102D50000E9483110E946B1160934A0270934B0290
:102D600080934C0290934D026E7F61F40E94831118
:102D70000E946B1160934A0270934B0280934C0245
:102D800090934D020E945C1110922B0280914A0296
:102D900080FF03C086950E949A1681E080932902E5
:102DA0000895EAE4F2E080818160808386950E9444
:102DB0009A16089521E030E0A90102C0440F551F82
:102DC0008A95E2F7CA0120912C02662369F0822BD2
:102DD00080932C0280912B02811105C080914A02C0
:102DE00086950E949A16089580958223F1CFCF93FD
:102DF000DF9380911E02882369F10E94461C209176
:102E00001C0230911D02821B930B8F3F9F4710F5D0
:102E1000D0E0C0E080911E0290E00C2E02C095959B
:102E200087950A94E2F780FF08C080911B0280FF1B
:102E300014C060E08C2F0E94DA162196C830D105AC
:102E400049F780911B02815080931B02811108C0B9
:102E500010921E02DF91CF91089561E08C2FEBCF8D
:102E60000E94461C2091190230911A02820F931F72
:102E700090931D0280931C02EDCF10922802809146
:102E8000270281110E94D1160E94141608950F93F3
:102E90001F93CF93DF9380912B028823B9F1809108
:102EA0002A02E0914A02E695E81BE0932302823071
:102EB000A1F5F0E0E054FF4FE491CE2FD0E002EB1B
:102EC00012E180912402882361F0109224020E9472
:102ED000461C9093220280932102109226021092A7
:102EE00025020E94461CE0912102F09122028E1BD5
:102EF0009F0B8F3F9F4750F4EC0FFD1FF093220272
:102F0000E093210281E292E0F80109950E94F71610
:102F1000DF91CF911F910F910895863049F4F0E031
:102F2000E354FF4FE491CE2FD0E006EC12E1C9CF7D
:102F3000893051F4E695F0E0E654FF4FE491CE2F4E
:102F4000D0E00EEE13E1BDCF8F3051F4E695F0E006
:102F5000E954FF4FE491CE2FD0E00BE214E1B1CF62
:102F6000853149F4F0E0EC54FF4FE491CE2FD0E0EE
:102F70000BE914E1A6CFC8E2D0E00EE015E18831FC
:102F800009F49FCF833239F4E2EBF0E0C591D4919C
:102F900006ED12E196CFC4EFD1E000E915E18432ED
:102FA00009F48FCFC0EDD7E00AE411E18ACFFA012E
:102FB000811101C0FB0109950895CF93DF93C82FBC
:102FC000D62F0E9493118C1748F00E9493118D17F1
:102FD00028F40E947016DF91CF9108958C2F0E94E3
:102FE0008316F9CF1F93CF93DF93EC01FB0112817E
:102FF00011117EC00E943D0B8272CD3CFCE5DF07C3
:1030000009F49CC008F041C0C73CECE5DE0709F4B8
:1030100081C0D8F4C43C9CE5D90709F471C030F4F0
:10302000C33CDC4509F469C011E062C0C53C9CE5C5
:10303000D90709F46AC042EA53E163E973E1C63C87
:10304000DC4591F70E94D71753C0CA3CFCE5DF0767
:1030500009F46AC068F4C83CECE5DE0709F45FC017
:1030600043EB53E164EC73E1C93CDC4559F3DCCF3D
:10307000CB3C9CE5D90709F45CC047EC51E16FEA11
:1030800071E1CC3CDC45F1F2CFCFC23DFCE5DF077E
:1030900009F465C098F4CF3C9CE5D90709F457C002
:1030A00008F451C0C03DFCE5DF0709F455C0C13D3F
:1030B000DC4509F0B9CF6EE089E04BC0C53D9CE529
:1030C000D90709F452C058F4C33DFCE5DF0709F401
:1030D00049C0C43DDC4509F0A7CF88E135C0C63DF5
:1030E0009CE5D90709F444C0CE35DD4509F09CCFF5
:1030F000812FDF91CF911F9108950E949016F8CFF4
:103100004FE756E160E776E19DCF40E756E16FE794
:1031100076E198CF43E953E162EA73E193CF44EC5F
:1031200053E163EB73E18ECF46EE53E165ED73E15E
:1031300089CF45ED53E166EE73E184CF4FEA51E16B
:1031400067EC71E17FCF81E00E948316D1CF65E00B
:1031500082E00E94DD17CCCF68E086E0FACF64E120
:103160008FE0F7CF67E185E1F4CF62E289E1F1CF4B
:1031700083E2EACF219A45B14D7F55B15260EFB756
:10318000F8949B01220F331F260F371F280F391F7A
:103190002817390741F4EFBF8FE594E00197F1F765
:1031A00000C000000895DC016D91CD0178E055B9B3
:1031B000000000C067FF45B9660F000000C000C0F6
:1031C00000C045B900C07A9591F7E2CFCF93DF9365
:1031D000EC01FB018281882309F433C1C430FDE591
:1031E000DF07C0F5CB3F9CE5D90730F49E012250A4
:1031F0003C4524313105B0F50E94400C90934702C4
:1032000080934602C1318CE5D80709F4EEC008F07E
:1032100069C0C930ECE5DE0709F4D5C0C8F5C53092
:103220008CE5D80709F4C7C000F5C330ECE5DE072C
:1032300009F4B9C008F0BBC0C230DC4509F4ADC028
:1032400080914602909147020E944E0C0E944606D1
:1032500080E008C0C236EDE5DE0771F2C63AFDE552
:10326000DF0751F2DF91CF9108958091460280628D
:10327000C7309CE5D90709F493C08091460280616C
:10328000C830DC4508F48CC080914602806488C058
:10329000809146028B7FCD30FCE5DF0709F480C0CA
:1032A00098F4809146028E7FCB309CE5D90709F4D3
:1032B00077C0809146028C60CC30DC4508F470C049
:1032C000809146028D7F6CC0809146028F7ECF3008
:1032D000FCE5DF0709F464C008F47BC08091460276
:1032E0008F7D5EC0CE3F9CE5D90709F47AC050F5CA
:1032F000C531FCE5DF0709F486C098F480914602E9
:10330000837FC3319CE5D90709F44AC008F471C032
:103310000E94460690914602892F97FB87F98058B4
:103320003FC0CC3FFCE5DF0709F449C008F055C0B9
:10333000809147028160CB3FDC4509F081CF8093CB
:1033400047027ECFC230EDE5DE0709F468C0A8F47D
:10335000C1158DE5D80709F452C0809147028360FA
:10336000C130DD4560F380914702982F90959170B0
:103370008E7F892B90FB81F9E2CFC236EDE5DE0727
:1033800009F451C0C63AFDE5DF0709F453C0C33064
:10339000DD4509F055CF80E043C080914602816051
:1033A000809346024DCF809146028260F9CF809192
:1033B00046028460F5CF809146028860F1CF80910B
:1033C00047028260BCCF0E94460680914602806818
:1033D000E7CF80914602877FE3CF809147028E7FBF
:1033E000AECF809147028D7FAACF809146028F7B1E
:1033F000D7CF0E944606809146028F77D1CF809129
:1034000047028C7F9CCF8091460282FB992790F9DE
:1034100021E0922790FB82F990FB83F9C1CF81E0F4
:103420000E94DB0C0DCF90914602892F8F7E94FF76
:103430008061B6CF90914602892F8E7F90FF816088
:10344000AFCF81E00FCFCF93DF93EB0186319C4567
:1034500011F50E943D0B9A81992399F08A7A91E0A7
:1034600009F490E090932D02811109C089E20E9435
:10347000150B0E947E0B80E0DF91CF91089585E3CC
:10348000F6CF80912D02811104C089E20E941D0BAC
:10349000F0CF85E3FBCF81E0EFCF0F931F93CF9366
:1034A000DF93C42FD22FFC0182818823C9F040937F
:1034B00030020E94461C90932F0280932E0280E2DD
:1034C0008C0F883040F4C77081E001C0880FCA9526
:1034D000EAF70E94DC03DF91CF911F910F910895CD
:1034E00010913002141332C080912E0290912F025D
:1034F0000E945E1C883C910548F5C0E2CD0F1D1767
:10350000B9F080E2810F883040F4177081E001C08B
:10351000880F1A95EAF70E94E303C83048F481E067
:103520009D2F977001C0880F9A95EAF70E94DC03DF
:10353000802F0E94D303C83070F6D77081E001C09D
:10354000880FDA95EAF70E94E303C5CF80E28C0F7B
:10355000883008F6C77081E001C0880FCA95EAF785
:10356000F2CF0F939C01CB01243F4CE5340759F176
:10357000A8F4293DFCE53F0701F12A3D4CE534075D
:10358000D1F1283D3C4591F406E221EE41EE68ED93
:103590007CE50E944D1A80E00F910895263FFCE5DE
:1035A0003F07E9F0B0F0273F3C45F9F0FC0182818C
:1035B000882339F110923002EFCF07E225EE45EE75
:1035C00069ED7CE5E6CF06E221EE40EE64EF7CE5B6
:1035D000E0CF07E225EE44EE65EF7CE5DACF06E2C8
:1035E00021EE42EE66EF7CE5D4CF07E225EE46EE13
:1035F00067EF7CE5CECF08E221E045EE6AED7CE5A1
:10360000C8CF81E0C9CF9093AD018093AC010895FC
:1036100090933602809335020895E0913502F0913F
:103620003602309729F00190F081E02D0995089538
:1036300080E00895E0913502F0913602309721F054
:103640000280F381E02D0995089520913302309195
:1036500034022817390771F09093340280933302B3
:10366000E0913502F0913602309721F00680F78123
:10367000E02D0995089520913102309132022817EA
:10368000390771F09093320280933102E091350254
:10369000F0913602309721F00084F185E02D0995F4
:1036A00008959C012E5F3F4FAC01485F5F4F80E063
:1036B0002417350709F40895F90191919F01992381
:1036C000B9F38F5FF5CF662349F0FC013296089677
:1036D0002191261729F0E817F907D1F780E008951E
:1036E00081E008959C01FC0132969FEF80E04191BA
:1036F000461751F09F3F19F4411101C0982F8F5F79
:103700008630A9F79F3F09F40895290F311D97FDD1
:103710003A95F90162830895FC0132960896219149
:10372000261303C0DF0111971C92E817F907B9F7B8
:1037300008950E94721B08950E948C1B08950296A2
:1037400026E0FC0111922A95E9F7089508950E9458
:10375000A61B0895811106C081E0809337020E9464
:10376000A71B089582E0F9CF83E0809337020E947F
:10377000A71B08950E94AA1B089581E08093370239
:103780000E94A71B08950E94BD1B089508950895E7
:103790000E94C71B0895089508950E94C61B0895AE
:1037A0000E94CB1B0E9436100E94CC1B80E00E941E
:1037B000B50F91E0811101C090E0892F089585B780
:1037C000806885BF85B7806885BF08951F921FB642
:1037D0001F9211248F939F93AF93BF9380913802D0
:1037E000811113C080915E0290915F02A0916002EE
:1037F000B09161024196A11DB11D80935E0290932C
:103800005F02A0936002B0936102BF91AF919F915C
:103810008F911F901FBE1F90189580916602843073
:1038200031F10E94DD021092380288E190E020E43C
:103830000FB6F894A895809360000FBE20936000A7
:1038400083B7817F846083BF83B7816083BF7894AF
:10385000889583B78E7F83BF0FB6F894A895809123
:103860006000886180936000109260000FBE089530
:103870000E9446060E94E402089582E084BD93E01F
:1038800095BD9AEF97BD80936E0008952FB7F89479
:1038900080915E0290915F02A0916002B0916102FE
:1038A0002FBF08952FB7F89460915E0270915F0268
:1038B00080916002909161022FBF08959C014FB7E3
:1038C000F89480915E0290915F02A0916002B091A5
:1038D00061024FBF821B930B089578941F921FB60D
:1038E0001F9211248F939F93AF93BF9380915E0299
:1038F00090915F02A0916002B09161020196A11DBA
:10390000B11D80935E0290935F02A0936002B0931A
:103910006102BF91AF919F918F911F901FBE1F9029
:10392000189581E08093E00080E28093D8001092A7
:10393000C9008FE19EE40197F1F700C0000087E025
:1039400090EBDC0180936F0290937002A093710260
:10395000B093720288E19CE00FB6F894A89580932A
:1039600060000FBE90936000FFCF88E19CE00FB62F
:10397000F894A895809360000FBE90936000FFCFED
:103980008091440208950895CF93DF93EC0181E084
:103990008093E9008FEF9091E800815095FD06C07B
:1039A00095ED9A95F1F700008111F5CF8091E8002F
:1039B00085FF14C050E040E068E070E0CE010E9456
:1039C000D61E8091E8008E778093E80088E0FE01A3
:1039D000ACE3B2E001900D928A95E1F7DF91CF91CF
:1039E00008958093390270933B0260933A0280916C
:1039F0006602843001F582E08093E9008FEF9091B8
:103A0000E800815095FD06C095ED9A95F1F700000C
:103A10008111F5CF8091E80085FF0DC050E040E0B6
:103A200063E070E089E392E00E94D61E8091E80096
:103A30008E778093E8000895BC0184E00E94F11C19
:103A40000895BC0183E00E94F11C089508958091BF
:103A50006502811109C00E9466200E94C3208091E6
:103A6000E20084608093E200089510926502089558
:103A70000E94BD1B08956091620281E0611101C046
:103A800080E00E94B41B08959091660281E094301A
:103A900009F080E0609162020E94BA1B089542E042
:103AA00061EC81E00E94E21F42E261EC82E00E9450
:103AB000E21F9091660281E0943009F080E060910D
:103AC00062020E94AA1B089580916802833009F463
:103AD00061C030F48130D1F1823009F49EC0089584
:103AE0008A3009F48AC08B3009F46FC0893009F03C
:103AF00050C080916702813209F04BC080916B0207
:103B000090916C02029708F044C08091E800877F92
:103B10008093E8008091E80082FF37C09091F30025
:103B20008091F200029731F48091F100813011F020
:103B3000863021F48091F100809344028091E80066
:103B40008B778093E8000E94162023C08091670243
:103B5000813AF9F48091E800877F8093E8008091B2
:103B60006B0290916C02892B61F468E08CE392E027
:103B700070E00E94251F8091E8008B778093E80019
:103B8000089560E090E080E0F3CF809166028111BB
:103B9000C1CF089580916702813AD9F780916B0275
:103BA00090916C02892BA9F78091E800877F809320
:103BB000E8008091E80080FFFCCF80912101809394
:103BC000F1008091E8008E77BCCF8091670281324E
:103BD00001F780916B0290916C02892BD1F6809154
:103BE000E800877F8093E8000E9416208091690298
:103BF000809321010E9446060895809167028132D8
:103C000041F68091E800877F8093E8000E941620AB
:103C100080916A0280934502089580916702813AFB
:103C200009F0B7CF8091E800877F8093E80080910A
:103C3000E80080FFFCCF80914502C1CF84B7877F29
:103C400084BF0FB6F894A895809160008861809336
:103C50006000109260000FBE80E890E00FB6F8940C
:103C600080936100909361000FBE0E94C31B089572
:103C70000E9466200E94C320E2EEF0E08081846012
:103C8000808378940E944223089585E191E00E9408
:103C9000081B089580916602853031F48091660298
:103CA000853019F00E94381C08950E940D1C8091E7
:103CB0006402882399F30E94D01B882379F30E9421
:103CC000C01E0E944606EACF08950E94681E08950D
:103CD000292F33272330310519F168F421303105BC
:103CE00009F444C02230310509F445C090E080E079
:103CF00030E020E025C02132310549F12232310582
:103D0000A9F780E490E025E733E061157105C1F083
:103D100082E390E023E433E06130710589F0E6CF7F
:103D200099278130910581F0009729F00297F1F6EB
:103D3000EEECF2E002C0E2EFF2E0849190E09F014D
:103D4000FA01318320830895E6EEF2E0F6CF89E0B0
:103D500090E028E033E06115710591F389E090E08F
:103D600021E233E06130710559F3C0CF82E190E088
:103D700021E333E0E5CF8BE390E026EF32E0E0CFC4
:103D800080E189BD82E189BD09B400FEFDCF80914B
:103D9000D8008F7D8093D8008091E000826080936E
:103DA000E0008091E00081FDFCCF0895AF92BF92CA
:103DB000CF92DF92FF920F931F93CF93DF936C010B
:103DC000EB018A010E943520F82E811123C00115D4
:103DD000110539F0F80180819181C81BD90BC80EFB
:103DE000D91EB12CA12C2097A9F08091E80085FD67
:103DF00022C08091E8008E778093E80001151105BC
:103E0000A1F0F80180819181A80EB91EB182A08233
:103E100085E0F82E8F2DDF91CF911F910F91FF90AC
:103E2000DF90CF90BF90AF9008950E9435208823F7
:103E3000D1F2F82EEFCFF60181916F018093F1005E
:103E40002197FFEFAF1ABF0ACECFFC0180916D0220
:103E500090916E0286179707A0F06115710529F4FD
:103E60009091E8009E779093E80090E061157105CD
:103E700051F4911108C08091E80082FF34C080E0C5
:103E80000895BC01F2CF809166028823C1F185308C
:103E9000C1F18091E80083FD30C08091E80082FD8F
:103EA000EACF8091E80080FFE1CF8091F30020917C
:103EB000F200382F6115710519F02830310558F0DE
:103EC00091E02830310509F090E02091E8002E774C
:103ED0002093E800CBCF81918093F100615071096C
:103EE0002F5F3F4FE7CF80916602882341F08530F6
:103EF00041F08091E80083FFBECF81E0089582E029
:103F0000089583E00895FC0180916D0290916E0206
:103F100086179707A0F06115710529F48091E800D4
:103F20008E778093E80090E06115710551F491114E
:103F300008C08091E80082FF35C080E00895BC0190
:103F4000F2CF809166028823C9F18530C9F1809152
:103F5000E80083FD31C08091E80082FDEACF8091C6
:103F6000E80080FFE1CF8091F3002091F200382F2C
:103F70006115710519F02830310558F091E02830AD
:103F8000310509F090E08091E8008E778093E80099
:103F9000CBCF84918093F1003196615071092F5FEE
:103FA0003F4FE6CF80916602882341F0853041F093
:103FB0008091E80083FFBDCF81E0089582E00895FD
:103FC00083E00895982F973028F08F708093E90050
:103FD00081E008959093E900242F762F50E0981700
:103FE00031F07091EC002091ED005091F00021FD36
:103FF00002C09F5FE8CF3091EB003E7F3093EB0033
:104000003091ED003D7F3093ED003091EB00316059
:104010003093EB007093EC002093ED005093F00090
:104020002091EE0027FDE5CF80E0089580916702A2
:1040300087FF13C08091E80082FF06C08091E800EE
:104040008B778093E80004C0809166028111F2CFE3
:104050000895809166028823D9F38091E80080FF5B
:10406000F8CF8091E8008E77ECCF2091E40030917A
:10407000E50095E6A9012091EC00822F817020FFD8
:1040800006C08091E80080FF06C080E0089520917E
:10409000E80022FD1AC080916602882389F08530ED
:1040A00089F08091EB0085FD0FC02091E4003091F4
:1040B000E50042175307F9F29150E1F684E00895C4
:1040C00082E0089583E0089581E008950E94D5205C
:1040D0000E94DD20E0EEF0E0808181608083E8EDE9
:1040E000F0E080818F77808319BCA7EDB0E08C91E0
:1040F0008E7F8C9380818F7E8083109265020895DD
:104100000F931F93CF93DF930E94D5200E94DD2051
:10411000C8EDD0E088818F77888388818068888324
:1041200088818F7D888319BC10926602109262028A
:10413000109264021092630200EE10E0F801808198
:104140008B7F808388818160888342E060E080E0AB
:104150000E94E21FE1EEF0E080818E7F8083E2EE3C
:10416000F0E0808181608083808188608083F801B5
:1041700080818E7F8083888180618883DF91CF9169
:104180001F910F910895E8EDF0E080818F7E80838C
:10419000E7EDF0E080818160808384E082BF81E090
:1041A000809365020E9480200895E8EDF0E0808110
:1041B0008E7F80831092E20008951092DA001092B0
:1041C000E10008951F920F920FB60F9211242F93C2
:1041D0003F934F935F936F937F938F939F93AF938F
:1041E000BF93EF93FF938091E10082FF0BC080911A
:1041F000E20082FF07C08091E1008B7F8093E100A5
:104200000E9441238091DA0080FF19C08091D8007C
:1042100080FF15C08091DA008E7F8093DA00809154
:10422000D90080FF96C080E189BD82E189BD09B4D3
:1042300000FEFDCF81E0809366020E94271D8091E1
:10424000E10080FF19C08091E20080FF15C08091DD
:10425000E2008E7F8093E2008091E2008061809393
:10426000E2008091D80080628093D80019BC85E07C
:10427000809366020E943B1D8091E10084FF2BC069
:104280008091E20084FF27C080E189BD82E189BD81
:1042900089B5982F917080FFFBCF8091D8008F7DDA
:1042A0008093D8008091E1008F7E8093E10080911F
:1042B000E2008F7E8093E2008091E2008160809333
:1042C000E20080916202882309F449C084E080936F
:1042D00066020E94441D8091E10083FF29C0809105
:1042E000E20083FF25C08091E100877F8093E10099
:1042F00082E080936602109262028091E1008E7FDC
:104300008093E1008091E2008E7F8093E2008091B3
:10431000E20080618093E20042E060E080E00E9481
:10432000E21F8091F00088608093F0000E94381DA9
:10433000FF91EF91BF91AF919F918F917F916F917D
:104340005F914F913F912F910F900FBE0F901F9053
:10435000189519BC109266020E94351D70CF80918D
:10436000E30087FD93E090936602B3CF1F920F9214
:104370000FB60F9211242F933F934F935F936F9338
:104380007F938F939F93AF93BF93CF93DF93EF93DD
:10439000FF93D091E900DF708091EC00C82FC170CD
:1043A00080FDC0E81092E9008091F000877F809343
:1043B000F00078940E94FA211092E9008091F000B8
:1043C00088608093F000CD2BCF70C093E900FF91FF
:1043D000EF91DF91CF91BF91AF919F918F917F919D
:1043E0006F915F914F913F912F910F900FBE0F9062
:1043F0001F901895AAE2B0E0E0E0F2E20C94FB23F3
:1044000087E692E02091F100FC012193CF01F2E0D8
:104410008F369F07B9F70E94641D8091E80083FFE3
:104420001EC180916702909168029A3008F017C10E
:10443000E92FF0E0E855FB4D0C94B523803899F056
:10444000823809F00CC180916B028F70873008F0C0
:1044500006C18093E9008091EB0085FB882780F9F5
:104460001092E90006C0809163029091640291115C
:1044700082609091E800977F9093E8008093F1002C
:104480001092F1008091E8008E77E5C0882309F44E
:10449000D3C0823009F0E3C0809169028111D6C097
:1044A00080916B028F702FEF280F263008F0D7C055
:1044B0008093E9002091EB0020FFC8C0933031F4D5
:1044C0008091EB0080628093EB00C0C09091EB0084
:1044D00090619093EB0021E030E001C0220F8A95BB
:1044E000EAF72093EA001092EA008091EB008860DE
:1044F000EACF8111B4C0109169021F778091E30067
:104500008078812B8093E3008091E800877F8093FF
:10451000E8000E9416208091E80080FFFCCF809187
:10452000E30080688093E30082E0111183E08093D0
:10453000660295C08058823008F091C0809169026F
:1045400090916A028C3D23E09207A1F583E08A8373
:104550008AE289834FB7F894DE01139620E03EE0AB
:1045600051E2E32FF0E050935700E49120FF03C0A5
:10457000E295EF703F5FEF708E2F90E0EA30C0F071
:10458000C7968D939D932F5F243159F74FBF80912C
:10459000E800877F8093E8006AE270E0CE01019630
:1045A0000E94251F8091E8008B778093E80057C018
:1045B000C096E7CF60916B0270916C02AE014F5FC5
:1045C0005F4F0E94651EBC01892B09F448C0909181
:1045D000E800977F9093E80089819A810E94831F69
:1045E000E1CF8038E1F58091E800877F8093E80093
:1045F000809162028093F10045CF811130C090918B
:104600006902923060F58091E800877F8093E8002E
:10461000909362020E94162080916202882311F01A
:1046200084E005C08091E30087FDFACF81E08093AC
:1046300066020E944F1D13C080916902813079F497
:1046400081E0933009F080E0809364021092E900E9
:104650008091E800877F8093E8000E941620809177
:10466000E80083FF0AC08091E800877F8093E8001C
:104670008091EB0080628093EB00AA96E3E00C94BB
:1046800017240895CF93809166028823A1F0C091EA
:10469000E900CF709091EC00892F817090FD80E847
:1046A000C82B1092E9008091E80083FD0E94FA2156
:1046B000CF70C093E900CF91089587FB082E06269E
:1046C00087FD819567FD61950E9423240EF49195E5
:1046D00007FC81950895AA1BBB1B51E107C0AA1FC7
:1046E000BB1FA617B70710F0A61BB70B881F991F93
:1046F0005A95A9F780959095BC01CD01089597FB37
:10470000072E16F4009407D077FD09D00E946B2382
:1047100007FC05D03EF4909581959F4F08957095C4
:1047200061957F4F0895A1E21A2EAA1BBB1BFD01C4
:104730000DC0AA1FBB1FEE1FFF1FA217B307E40780
:10474000F50720F0A21BB30BE40BF50B661F771FD8
:10475000881F991F1A9469F76095709580959095B8
:104760009B01AC01BD01CF010895EE0FFF1F059025
:10477000F491E02D09940E94C323332312F48A1B81
:104780009B0B0C94D423A29FB001B39FC001A39FA5
:10479000700D811D1124911DB29F700D811D11247A
:1047A000911D08950E94C323B7FF0895821B930BA8
:1047B00008950E94C323A59F900DB49F900DA49FC0
:1047C000800D911D11240895B7FF0C94D9230E94E8
:1047D000D923821B930B08952F923F924F925F92A1
:1047E0006F927F928F929F92AF92BF92CF92DF9201
:1047F000EF92FF920F931F93CF93DF93CDB7DEB766
:10480000CA1BDB0B0FB6F894DEBF0FBECDBF0994F9
:104810002A88398848885F846E847D848C849B8450
:10482000AA84B984C884DF80EE80FD800C811B815E
:10483000AA81B981CE0FD11D0FB6F894DEBF0FBE8D
:10484000CDBFED010895991B79E004C0991F96171B
:1048500008F0961B881F7A95C9F780950895FB018B
:10486000DC0102C005900D9241505040D8F70895E8
:10487000FC014150504030F001900616D1F73197BD
:10488000CF010895882799270895FB01DC0104C012
:104890008D910190801921F441505040C8F7881B38
:1048A000990B0895F999FECF92BD81BDF89A992789
:1048B00080B50895A6E1B0E044E050E00C948C246B
:1048C000A8E1B0E042E050E00C948C24262FF99946
:1048D000FECF92BD81BDF89A019700B4021639F05F
:1048E0001FBA20BD0FB6F894FA9AF99A0FBE089530
:1048F0000396272F0E9467240E946624252F0E947A
:104900006724242F0C9467240196272F0E94672484
:104910000C946624DC01CB01FC01F999FECF06C0A2
:10492000F2BDE1BDF89A319600B40D92415050406D
:10493000B8F70895F894FFCF2504250456045604CB
:10494000E304850485048504FF048B059A059A0514
:104950001E2246222F2346222F2379229A222F23FA
:04496000F122FD2221
:10496400FF01010102000500050501191A1B1C1DA8
:104974001E1F202122C01CC41C261D211D1C1DC35A
:104984001C01E200E900EA00B500B600B700CD0062
:104994008301CC008A0192019401210223022402A2
:1049A4002502260227022A02B300B4006F00700019
:1049B400818283E200E900EA00B500B600B700CDC9
:1049C400008301CC008A0192019401210223022474
:1049D400022502260227022A02B300B4006F0070E7
:1049E400008182839291900001020202020606066F
:1049F4000909090909090F0F0F0F0F0F15151518CC
:0C4A040019191919191919191919232465
:00000001FF
